{
  "_format": "hh-sol-artifact-1",
  "contractName": "FriscoToken",
  "sourceName": "contracts/FriscoToken.sol",
  "abi": [
    {
      "inputs": [],
      "stateMutability": "nonpayable",
      "type": "constructor"
    },
    {
      "anonymous": false,
      "inputs": [
        {
          "indexed": true,
          "internalType": "address",
          "name": "owner",
          "type": "address"
        },
        {
          "indexed": true,
          "internalType": "address",
          "name": "spender",
          "type": "address"
        },
        {
          "indexed": false,
          "internalType": "uint256",
          "name": "value",
          "type": "uint256"
        }
      ],
      "name": "Approval",
      "type": "event"
    },
    {
      "anonymous": false,
      "inputs": [
        {
          "indexed": true,
          "internalType": "address",
          "name": "previousOwner",
          "type": "address"
        },
        {
          "indexed": true,
          "internalType": "address",
          "name": "newOwner",
          "type": "address"
        }
      ],
      "name": "OwnershipTransferred",
      "type": "event"
    },
    {
      "anonymous": false,
      "inputs": [
        {
          "indexed": true,
          "internalType": "address",
          "name": "from",
          "type": "address"
        },
        {
          "indexed": true,
          "internalType": "address",
          "name": "to",
          "type": "address"
        },
        {
          "indexed": false,
          "internalType": "uint256",
          "name": "value",
          "type": "uint256"
        }
      ],
      "name": "Transfer",
      "type": "event"
    },
    {
      "inputs": [
        {
          "internalType": "address",
          "name": "owner",
          "type": "address"
        },
        {
          "internalType": "address",
          "name": "spender",
          "type": "address"
        }
      ],
      "name": "allowance",
      "outputs": [
        {
          "internalType": "uint256",
          "name": "",
          "type": "uint256"
        }
      ],
      "stateMutability": "view",
      "type": "function"
    },
    {
      "inputs": [
        {
          "internalType": "address",
          "name": "spender",
          "type": "address"
        },
        {
          "internalType": "uint256",
          "name": "amount",
          "type": "uint256"
        }
      ],
      "name": "approve",
      "outputs": [
        {
          "internalType": "bool",
          "name": "",
          "type": "bool"
        }
      ],
      "stateMutability": "nonpayable",
      "type": "function"
    },
    {
      "inputs": [
        {
          "internalType": "address",
          "name": "account",
          "type": "address"
        }
      ],
      "name": "balanceOf",
      "outputs": [
        {
          "internalType": "uint256",
          "name": "",
          "type": "uint256"
        }
      ],
      "stateMutability": "view",
      "type": "function"
    },
    {
      "inputs": [
        {
          "internalType": "address",
          "name": "_address",
          "type": "address"
        }
      ],
      "name": "blacklistAddress",
      "outputs": [],
      "stateMutability": "nonpayable",
      "type": "function"
    },
    {
      "inputs": [],
      "name": "buyTax",
      "outputs": [
        {
          "internalType": "uint256",
          "name": "",
          "type": "uint256"
        }
      ],
      "stateMutability": "view",
      "type": "function"
    },
    {
      "inputs": [],
      "name": "decimals",
      "outputs": [
        {
          "internalType": "uint8",
          "name": "",
          "type": "uint8"
        }
      ],
      "stateMutability": "view",
      "type": "function"
    },
    {
      "inputs": [
        {
          "internalType": "address",
          "name": "spender",
          "type": "address"
        },
        {
          "internalType": "uint256",
          "name": "subtractedValue",
          "type": "uint256"
        }
      ],
      "name": "decreaseAllowance",
      "outputs": [
        {
          "internalType": "bool",
          "name": "",
          "type": "bool"
        }
      ],
      "stateMutability": "nonpayable",
      "type": "function"
    },
    {
      "inputs": [
        {
          "internalType": "bool",
          "name": "_enable",
          "type": "bool"
        }
      ],
      "name": "enableTrading",
      "outputs": [],
      "stateMutability": "nonpayable",
      "type": "function"
    },
    {
      "inputs": [
        {
          "internalType": "address",
          "name": "_address",
          "type": "address"
        }
      ],
      "name": "excludeFromTax",
      "outputs": [],
      "stateMutability": "nonpayable",
      "type": "function"
    },
    {
      "inputs": [
        {
          "internalType": "address",
          "name": "_address",
          "type": "address"
        }
      ],
      "name": "includeInTax",
      "outputs": [],
      "stateMutability": "nonpayable",
      "type": "function"
    },
    {
      "inputs": [
        {
          "internalType": "address",
          "name": "spender",
          "type": "address"
        },
        {
          "internalType": "uint256",
          "name": "addedValue",
          "type": "uint256"
        }
      ],
      "name": "increaseAllowance",
      "outputs": [
        {
          "internalType": "bool",
          "name": "",
          "type": "bool"
        }
      ],
      "stateMutability": "nonpayable",
      "type": "function"
    },
    {
      "inputs": [
        {
          "internalType": "address",
          "name": "",
          "type": "address"
        }
      ],
      "name": "isBlacklisted",
      "outputs": [
        {
          "internalType": "bool",
          "name": "",
          "type": "bool"
        }
      ],
      "stateMutability": "view",
      "type": "function"
    },
    {
      "inputs": [
        {
          "internalType": "address",
          "name": "",
          "type": "address"
        }
      ],
      "name": "isExcludedFromTax",
      "outputs": [
        {
          "internalType": "bool",
          "name": "",
          "type": "bool"
        }
      ],
      "stateMutability": "view",
      "type": "function"
    },
    {
      "inputs": [
        {
          "internalType": "address",
          "name": "_address",
          "type": "address"
        }
      ],
      "name": "isTaxable",
      "outputs": [
        {
          "internalType": "bool",
          "name": "",
          "type": "bool"
        }
      ],
      "stateMutability": "view",
      "type": "function"
    },
    {
      "inputs": [
        {
          "internalType": "address",
          "name": "",
          "type": "address"
        }
      ],
      "name": "isWhitelisted",
      "outputs": [
        {
          "internalType": "bool",
          "name": "",
          "type": "bool"
        }
      ],
      "stateMutability": "view",
      "type": "function"
    },
    {
      "inputs": [],
      "name": "maxWalletLimit",
      "outputs": [
        {
          "internalType": "uint256",
          "name": "",
          "type": "uint256"
        }
      ],
      "stateMutability": "view",
      "type": "function"
    },
    {
      "inputs": [],
      "name": "name",
      "outputs": [
        {
          "internalType": "string",
          "name": "",
          "type": "string"
        }
      ],
      "stateMutability": "view",
      "type": "function"
    },
    {
      "inputs": [],
      "name": "owner",
      "outputs": [
        {
          "internalType": "address",
          "name": "",
          "type": "address"
        }
      ],
      "stateMutability": "view",
      "type": "function"
    },
    {
      "inputs": [
        {
          "internalType": "uint256",
          "name": "",
          "type": "uint256"
        }
      ],
      "name": "path",
      "outputs": [
        {
          "internalType": "address",
          "name": "",
          "type": "address"
        }
      ],
      "stateMutability": "view",
      "type": "function"
    },
    {
      "inputs": [
        {
          "internalType": "address",
          "name": "_address",
          "type": "address"
        }
      ],
      "name": "removeBlacklist",
      "outputs": [],
      "stateMutability": "nonpayable",
      "type": "function"
    },
    {
      "inputs": [],
      "name": "renounceOwnership",
      "outputs": [],
      "stateMutability": "nonpayable",
      "type": "function"
    },
    {
      "inputs": [],
      "name": "sellTax",
      "outputs": [
        {
          "internalType": "uint256",
          "name": "",
          "type": "uint256"
        }
      ],
      "stateMutability": "view",
      "type": "function"
    },
    {
      "inputs": [],
      "name": "symbol",
      "outputs": [
        {
          "internalType": "string",
          "name": "",
          "type": "string"
        }
      ],
      "stateMutability": "view",
      "type": "function"
    },
    {
      "inputs": [],
      "name": "taxWallet",
      "outputs": [
        {
          "internalType": "address",
          "name": "",
          "type": "address"
        }
      ],
      "stateMutability": "view",
      "type": "function"
    },
    {
      "inputs": [],
      "name": "totalSupply",
      "outputs": [
        {
          "internalType": "uint256",
          "name": "",
          "type": "uint256"
        }
      ],
      "stateMutability": "view",
      "type": "function"
    },
    {
      "inputs": [],
      "name": "tradingEnabled",
      "outputs": [
        {
          "internalType": "bool",
          "name": "",
          "type": "bool"
        }
      ],
      "stateMutability": "view",
      "type": "function"
    },
    {
      "inputs": [
        {
          "internalType": "address",
          "name": "to",
          "type": "address"
        },
        {
          "internalType": "uint256",
          "name": "amount",
          "type": "uint256"
        }
      ],
      "name": "transfer",
      "outputs": [
        {
          "internalType": "bool",
          "name": "",
          "type": "bool"
        }
      ],
      "stateMutability": "nonpayable",
      "type": "function"
    },
    {
      "inputs": [
        {
          "internalType": "address",
          "name": "from",
          "type": "address"
        },
        {
          "internalType": "address",
          "name": "to",
          "type": "address"
        },
        {
          "internalType": "uint256",
          "name": "amount",
          "type": "uint256"
        }
      ],
      "name": "transferFrom",
      "outputs": [
        {
          "internalType": "bool",
          "name": "",
          "type": "bool"
        }
      ],
      "stateMutability": "nonpayable",
      "type": "function"
    },
    {
      "inputs": [
        {
          "internalType": "address",
          "name": "newOwner",
          "type": "address"
        }
      ],
      "name": "transferOwnership",
      "outputs": [],
      "stateMutability": "nonpayable",
      "type": "function"
    },
    {
      "inputs": [],
      "name": "transferTax",
      "outputs": [
        {
          "internalType": "uint256",
          "name": "",
          "type": "uint256"
        }
      ],
      "stateMutability": "view",
      "type": "function"
    },
    {
      "inputs": [],
      "name": "uniswapV2Pair",
      "outputs": [
        {
          "internalType": "address",
          "name": "",
          "type": "address"
        }
      ],
      "stateMutability": "view",
      "type": "function"
    },
    {
      "inputs": [],
      "name": "uniswapV2Router",
      "outputs": [
        {
          "internalType": "contract IUniswapV2Router02",
          "name": "",
          "type": "address"
        }
      ],
      "stateMutability": "view",
      "type": "function"
    },
    {
      "inputs": [
        {
          "internalType": "address",
          "name": "_newTaxWallet",
          "type": "address"
        }
      ],
      "name": "updateTaxWallet",
      "outputs": [],
      "stateMutability": "nonpayable",
      "type": "function"
    },
    {
      "inputs": [
        {
          "internalType": "uint256",
          "name": "_buyTax",
          "type": "uint256"
        },
        {
          "internalType": "uint256",
          "name": "_sellTax",
          "type": "uint256"
        },
        {
          "internalType": "uint256",
          "name": "_transferTax",
          "type": "uint256"
        }
      ],
      "name": "updateTaxes",
      "outputs": [],
      "stateMutability": "nonpayable",
      "type": "function"
    },
    {
      "inputs": [
        {
          "internalType": "address",
          "name": "_address",
          "type": "address"
        }
      ],
      "name": "whitelistAddress",
      "outputs": [],
      "stateMutability": "nonpayable",
      "type": "function"
    },
    {
      "stateMutability": "payable",
      "type": "receive"
    }
  ],
  "bytecode": "0x60806040526003600655600860075560016008556c193e5939a08ce9dbd4800000006009556000600a60006101000a81548160ff0219169083151502179055503480156200004c57600080fd5b506040518060400160405280600681526020017f46726973636f00000000000000000000000000000000000000000000000000008152506040518060400160405280600381526020017f464c4d00000000000000000000000000000000000000000000000000000000008152508160039081620000ca9190620008bb565b508060049081620000dc9190620008bb565b505050620000ff620000f3620003fc60201b60201c565b6200040460201b60201c565b73e592427a0aece92de3edee1f18e0157c05861564600c60006101000a81548173ffffffffffffffffffffffffffffffffffffffff021916908373ffffffffffffffffffffffffffffffffffffffff160217905550600c60009054906101000a900473ffffffffffffffffffffffffffffffffffffffff1673ffffffffffffffffffffffffffffffffffffffff1663c45a01556040518163ffffffff1660e01b8152600401602060405180830381865afa158015620001c2573d6000803e3d6000fd5b505050506040513d601f19601f82011682018060405250810190620001e8919062000a0c565b73ffffffffffffffffffffffffffffffffffffffff1663c9c6539630600c60009054906101000a900473ffffffffffffffffffffffffffffffffffffffff1673ffffffffffffffffffffffffffffffffffffffff1663ad5c46486040518163ffffffff1660e01b8152600401602060405180830381865afa15801562000272573d6000803e3d6000fd5b505050506040513d601f19601f8201168201806040525081019062000298919062000a0c565b6040518363ffffffff1660e01b8152600401620002b792919062000a4f565b6020604051808303816000875af1158015620002d7573d6000803e3d6000fd5b505050506040513d601f19601f82011682018060405250810190620002fd919062000a0c565b600d60006101000a81548173ffffffffffffffffffffffffffffffffffffffff021916908373ffffffffffffffffffffffffffffffffffffffff1602179055506200035d336d04ee2d6d415b85acef8100000000620004ca60201b60201c565b33600a60016101000a81548173ffffffffffffffffffffffffffffffffffffffff021916908373ffffffffffffffffffffffffffffffffffffffff1602179055506001601060003373ffffffffffffffffffffffffffffffffffffffff1673ffffffffffffffffffffffffffffffffffffffff16815260200190815260200160002060006101000a81548160ff02191690831515021790555062000b97565b600033905090565b6000600560009054906101000a900473ffffffffffffffffffffffffffffffffffffffff16905081600560006101000a81548173ffffffffffffffffffffffffffffffffffffffff021916908373ffffffffffffffffffffffffffffffffffffffff1602179055508173ffffffffffffffffffffffffffffffffffffffff168173ffffffffffffffffffffffffffffffffffffffff167f8be0079c531659141344cd1fd0a4f28419497f9722a3daafe3b4186f6b6457e060405160405180910390a35050565b600073ffffffffffffffffffffffffffffffffffffffff168273ffffffffffffffffffffffffffffffffffffffff16036200053c576040517f08c379a0000000000000000000000000000000000000000000000000000000008152600401620005339062000add565b60405180910390fd5b62000550600083836200063760201b60201c565b806002600082825462000564919062000b2e565b92505081905550806000808473ffffffffffffffffffffffffffffffffffffffff1673ffffffffffffffffffffffffffffffffffffffff168152602001908152602001600020600082825401925050819055508173ffffffffffffffffffffffffffffffffffffffff16600073ffffffffffffffffffffffffffffffffffffffff167fddf252ad1be2c89b69c2b068fc378daa952ba7f163c4a11628f55a4df523b3ef8360405162000617919062000b7a565b60405180910390a362000633600083836200063c60201b60201c565b5050565b505050565b505050565b600081519050919050565b7f4e487b7100000000000000000000000000000000000000000000000000000000600052604160045260246000fd5b7f4e487b7100000000000000000000000000000000000000000000000000000000600052602260045260246000fd5b60006002820490506001821680620006c357607f821691505b602082108103620006d957620006d86200067b565b5b50919050565b60008190508160005260206000209050919050565b60006020601f8301049050919050565b600082821b905092915050565b600060088302620007437fffffffffffffffffffffffffffffffffffffffffffffffffffffffffffffffff8262000704565b6200074f868362000704565b95508019841693508086168417925050509392505050565b6000819050919050565b6000819050919050565b60006200079c62000796620007908462000767565b62000771565b62000767565b9050919050565b6000819050919050565b620007b8836200077b565b620007d0620007c782620007a3565b84845462000711565b825550505050565b600090565b620007e7620007d8565b620007f4818484620007ad565b505050565b5b818110156200081c5762000810600082620007dd565b600181019050620007fa565b5050565b601f8211156200086b576200083581620006df565b6200084084620006f4565b8101602085101562000850578190505b620008686200085f85620006f4565b830182620007f9565b50505b505050565b600082821c905092915050565b6000620008906000198460080262000870565b1980831691505092915050565b6000620008ab83836200087d565b9150826002028217905092915050565b620008c68262000641565b67ffffffffffffffff811115620008e257620008e16200064c565b5b620008ee8254620006aa565b620008fb82828562000820565b600060209050601f8311600181146200093357600084156200091e578287015190505b6200092a85826200089d565b8655506200099a565b601f1984166200094386620006df565b60005b828110156200096d5784890151825560018201915060208501945060208101905062000946565b868310156200098d578489015162000989601f8916826200087d565b8355505b6001600288020188555050505b505050505050565b600080fd5b600073ffffffffffffffffffffffffffffffffffffffff82169050919050565b6000620009d482620009a7565b9050919050565b620009e681620009c7565b8114620009f257600080fd5b50565b60008151905062000a0681620009db565b92915050565b60006020828403121562000a255762000a24620009a2565b5b600062000a3584828501620009f5565b91505092915050565b62000a4981620009c7565b82525050565b600060408201905062000a66600083018562000a3e565b62000a75602083018462000a3e565b9392505050565b600082825260208201905092915050565b7f45524332303a206d696e7420746f20746865207a65726f206164647265737300600082015250565b600062000ac5601f8362000a7c565b915062000ad28262000a8d565b602082019050919050565b6000602082019050818103600083015262000af88162000ab6565b9050919050565b7f4e487b7100000000000000000000000000000000000000000000000000000000600052601160045260246000fd5b600062000b3b8262000767565b915062000b488362000767565b925082820190508082111562000b635762000b6262000aff565b5b92915050565b62000b748162000767565b82525050565b600060208201905062000b91600083018462000b69565b92915050565b612e8e8062000ba76000396000f3fe6080604052600436106102085760003560e01c806374c9f60311610118578063cc1776d3116100a0578063f275f64b1161006f578063f275f64b146107c6578063f2e76c25146107ef578063f2fde38b14610818578063f3290d7514610841578063fe575a871461086a5761020f565b8063cc1776d31461070c578063dd62ed3e14610737578063e17c4c7414610774578063eb91e6511461079d5761020f565b806395d89b41116100e757806395d89b41146105ed578063a457c2d714610618578063a9059cbb14610655578063af6d1fe414610692578063cb4ca631146106cf5761020f565b806374c9f603146105315780638124f7ac1461055a578063819906fe146105855780638da5cb5b146105c25761020f565b80633af32abf1161019b5780634f7041a51161016a5780634f7041a51461045e57806360d1259e1461048957806366a88d96146104b257806370a08231146104dd578063715018a61461051a5761020f565b80633af32abf146103a257806341566585146103df57806349bd5a5e146104085780634ada218b146104335761020f565b806323b872dd116101d757806323b872dd146102d25780632dc0562d1461030f578063313ce5671461033a57806339509351146103655761020f565b806306fdde0314610214578063095ea7b31461023f5780631694505e1461027c57806318160ddd146102a75761020f565b3661020f57005b600080fd5b34801561022057600080fd5b506102296108a7565b6040516102369190611e8b565b60405180910390f35b34801561024b57600080fd5b5061026660048036038101906102619190611f55565b610939565b6040516102739190611fb0565b60405180910390f35b34801561028857600080fd5b5061029161095c565b60405161029e919061202a565b60405180910390f35b3480156102b357600080fd5b506102bc610982565b6040516102c99190612054565b60405180910390f35b3480156102de57600080fd5b506102f960048036038101906102f4919061206f565b61098c565b6040516103069190611fb0565b60405180910390f35b34801561031b57600080fd5b506103246109bb565b60405161033191906120d1565b60405180910390f35b34801561034657600080fd5b5061034f6109e1565b60405161035c9190612108565b60405180910390f35b34801561037157600080fd5b5061038c60048036038101906103879190611f55565b6109ea565b6040516103999190611fb0565b60405180910390f35b3480156103ae57600080fd5b506103c960048036038101906103c49190612123565b610a21565b6040516103d69190611fb0565b60405180910390f35b3480156103eb57600080fd5b5061040660048036038101906104019190612123565b610a41565b005b34801561041457600080fd5b5061041d610aa4565b60405161042a91906120d1565b60405180910390f35b34801561043f57600080fd5b50610448610aca565b6040516104559190611fb0565b60405180910390f35b34801561046a57600080fd5b50610473610add565b6040516104809190612054565b60405180910390f35b34801561049557600080fd5b506104b060048036038101906104ab9190612123565b610ae3565b005b3480156104be57600080fd5b506104c7610b46565b6040516104d49190612054565b60405180910390f35b3480156104e957600080fd5b5061050460048036038101906104ff9190612123565b610b4c565b6040516105119190612054565b60405180910390f35b34801561052657600080fd5b5061052f610b94565b005b34801561053d57600080fd5b5061055860048036038101906105539190612123565b610ba8565b005b34801561056657600080fd5b5061056f610bf4565b60405161057c9190612054565b60405180910390f35b34801561059157600080fd5b506105ac60048036038101906105a79190612123565b610bfa565b6040516105b99190611fb0565b60405180910390f35b3480156105ce57600080fd5b506105d7610ca7565b6040516105e491906120d1565b60405180910390f35b3480156105f957600080fd5b50610602610cd1565b60405161060f9190611e8b565b60405180910390f35b34801561062457600080fd5b5061063f600480360381019061063a9190611f55565b610d63565b60405161064c9190611fb0565b60405180910390f35b34801561066157600080fd5b5061067c60048036038101906106779190611f55565b610dda565b6040516106899190611fb0565b60405180910390f35b34801561069e57600080fd5b506106b960048036038101906106b49190612150565b610dfd565b6040516106c691906120d1565b60405180910390f35b3480156106db57600080fd5b506106f660048036038101906106f19190612123565b610e3c565b6040516107039190611fb0565b60405180910390f35b34801561071857600080fd5b50610721610e5c565b60405161072e9190612054565b60405180910390f35b34801561074357600080fd5b5061075e6004803603810190610759919061217d565b610e62565b60405161076b9190612054565b60405180910390f35b34801561078057600080fd5b5061079b60048036038101906107969190612123565b610ee9565b005b3480156107a957600080fd5b506107c460048036038101906107bf9190612123565b610f4c565b005b3480156107d257600080fd5b506107ed60048036038101906107e891906121e9565b610faf565b005b3480156107fb57600080fd5b5061081660048036038101906108119190612216565b610fd4565b005b34801561082457600080fd5b5061083f600480360381019061083a9190612123565b611054565b005b34801561084d57600080fd5b5061086860048036038101906108639190612123565b6110d7565b005b34801561087657600080fd5b50610891600480360381019061088c9190612123565b61113a565b60405161089e9190611fb0565b60405180910390f35b6060600380546108b690612298565b80601f01602080910402602001604051908101604052809291908181526020018280546108e290612298565b801561092f5780601f106109045761010080835404028352916020019161092f565b820191906000526020600020905b81548152906001019060200180831161091257829003601f168201915b5050505050905090565b60008061094461115a565b9050610951818585611162565b600191505092915050565b600c60009054906101000a900473ffffffffffffffffffffffffffffffffffffffff1681565b6000600254905090565b60008061099761115a565b90506109a485828561132b565b6109af8585856113b7565b60019150509392505050565b600a60019054906101000a900473ffffffffffffffffffffffffffffffffffffffff1681565b60006012905090565b6000806109f561115a565b9050610a16818585610a078589610e62565b610a1191906122f8565b611162565b600191505092915050565b600e6020528060005260406000206000915054906101000a900460ff1681565b610a49611793565b6001600e60008373ffffffffffffffffffffffffffffffffffffffff1673ffffffffffffffffffffffffffffffffffffffff16815260200190815260200160002060006101000a81548160ff02191690831515021790555050565b600d60009054906101000a900473ffffffffffffffffffffffffffffffffffffffff1681565b600a60009054906101000a900460ff1681565b60065481565b610aeb611793565b6001601060008373ffffffffffffffffffffffffffffffffffffffff1673ffffffffffffffffffffffffffffffffffffffff16815260200190815260200160002060006101000a81548160ff02191690831515021790555050565b60095481565b60008060008373ffffffffffffffffffffffffffffffffffffffff1673ffffffffffffffffffffffffffffffffffffffff168152602001908152602001600020549050919050565b610b9c611793565b610ba66000611811565b565b610bb0611793565b80600a60016101000a81548173ffffffffffffffffffffffffffffffffffffffff021916908373ffffffffffffffffffffffffffffffffffffffff16021790555050565b60085481565b6000601060008373ffffffffffffffffffffffffffffffffffffffff1673ffffffffffffffffffffffffffffffffffffffff16815260200190815260200160002060009054906101000a900460ff16158015610ca05750600e60008373ffffffffffffffffffffffffffffffffffffffff1673ffffffffffffffffffffffffffffffffffffffff16815260200190815260200160002060009054906101000a900460ff16155b9050919050565b6000600560009054906101000a900473ffffffffffffffffffffffffffffffffffffffff16905090565b606060048054610ce090612298565b80601f0160208091040260200160405190810160405280929190818152602001828054610d0c90612298565b8015610d595780601f10610d2e57610100808354040283529160200191610d59565b820191906000526020600020905b815481529060010190602001808311610d3c57829003601f168201915b5050505050905090565b600080610d6e61115a565b90506000610d7c8286610e62565b905083811015610dc1576040517f08c379a0000000000000000000000000000000000000000000000000000000008152600401610db89061239e565b60405180910390fd5b610dce8286868403611162565b60019250505092915050565b600080610de561115a565b9050610df28185856113b7565b600191505092915050565b600b8181548110610e0d57600080fd5b906000526020600020016000915054906101000a900473ffffffffffffffffffffffffffffffffffffffff1681565b60106020528060005260406000206000915054906101000a900460ff1681565b60075481565b6000600160008473ffffffffffffffffffffffffffffffffffffffff1673ffffffffffffffffffffffffffffffffffffffff16815260200190815260200160002060008373ffffffffffffffffffffffffffffffffffffffff1673ffffffffffffffffffffffffffffffffffffffff16815260200190815260200160002054905092915050565b610ef1611793565b6000601060008373ffffffffffffffffffffffffffffffffffffffff1673ffffffffffffffffffffffffffffffffffffffff16815260200190815260200160002060006101000a81548160ff02191690831515021790555050565b610f54611793565b6000600f60008373ffffffffffffffffffffffffffffffffffffffff1673ffffffffffffffffffffffffffffffffffffffff16815260200190815260200160002060006101000a81548160ff02191690831515021790555050565b610fb7611793565b80600a60006101000a81548160ff02191690831515021790555050565b610fdc611793565b60198311158015610fee575060198211155b8015610ffb575060198111155b61103a576040517f08c379a00000000000000000000000000000000000000000000000000000000081526004016110319061240a565b60405180910390fd5b826006819055508160078190555080600881905550505050565b61105c611793565b600073ffffffffffffffffffffffffffffffffffffffff168173ffffffffffffffffffffffffffffffffffffffff16036110cb576040517f08c379a00000000000000000000000000000000000000000000000000000000081526004016110c29061249c565b60405180910390fd5b6110d481611811565b50565b6110df611793565b6001600f60008373ffffffffffffffffffffffffffffffffffffffff1673ffffffffffffffffffffffffffffffffffffffff16815260200190815260200160002060006101000a81548160ff02191690831515021790555050565b600f6020528060005260406000206000915054906101000a900460ff1681565b600033905090565b600073ffffffffffffffffffffffffffffffffffffffff168373ffffffffffffffffffffffffffffffffffffffff16036111d1576040517f08c379a00000000000000000000000000000000000000000000000000000000081526004016111c89061252e565b60405180910390fd5b600073ffffffffffffffffffffffffffffffffffffffff168273ffffffffffffffffffffffffffffffffffffffff1603611240576040517f08c379a0000000000000000000000000000000000000000000000000000000008152600401611237906125c0565b60405180910390fd5b80600160008573ffffffffffffffffffffffffffffffffffffffff1673ffffffffffffffffffffffffffffffffffffffff16815260200190815260200160002060008473ffffffffffffffffffffffffffffffffffffffff1673ffffffffffffffffffffffffffffffffffffffff168152602001908152602001600020819055508173ffffffffffffffffffffffffffffffffffffffff168373ffffffffffffffffffffffffffffffffffffffff167f8c5be1e5ebec7d5bd14f71427d1e84f3dd0314c0f7b2291e5b200ac8c7c3b9258360405161131e9190612054565b60405180910390a3505050565b60006113378484610e62565b90507fffffffffffffffffffffffffffffffffffffffffffffffffffffffffffffffff81146113b157818110156113a3576040517f08c379a000000000000000000000000000000000000000000000000000000000815260040161139a9061262c565b60405180910390fd5b6113b08484848403611162565b5b50505050565b600a60009054906101000a900460ff16611406576040517f08c379a00000000000000000000000000000000000000000000000000000000081526004016113fd90612698565b60405180910390fd5b600f60008473ffffffffffffffffffffffffffffffffffffffff1673ffffffffffffffffffffffffffffffffffffffff16815260200190815260200160002060009054906101000a900460ff161580156114aa5750600f60008373ffffffffffffffffffffffffffffffffffffffff1673ffffffffffffffffffffffffffffffffffffffff16815260200190815260200160002060009054906101000a900460ff16155b6114e9576040517f08c379a00000000000000000000000000000000000000000000000000000000081526004016114e090612704565b60405180910390fd5b60008061151a606461150c60026114fe610982565b6118d790919063ffffffff16565b6118ed90919063ffffffff16565b90503073ffffffffffffffffffffffffffffffffffffffff168473ffffffffffffffffffffffffffffffffffffffff16141580156115a25750600e60008573ffffffffffffffffffffffffffffffffffffffff1673ffffffffffffffffffffffffffffffffffffffff16815260200190815260200160002060009054906101000a900460ff16155b1561160557806115c3846115b587610b4c565b61190390919063ffffffff16565b1115611604576040517f08c379a00000000000000000000000000000000000000000000000000000000081526004016115fb90612770565b60405180910390fd5b5b61160e85610bfa565b1561178157600d60009054906101000a900473ffffffffffffffffffffffffffffffffffffffff1673ffffffffffffffffffffffffffffffffffffffff168573ffffffffffffffffffffffffffffffffffffffff1603611697576116906064611682600654866118d790919063ffffffff16565b6118ed90919063ffffffff16565b9150611747565b600d60009054906101000a900473ffffffffffffffffffffffffffffffffffffffff1673ffffffffffffffffffffffffffffffffffffffff168473ffffffffffffffffffffffffffffffffffffffff160361171b576117146064611706600754866118d790919063ffffffff16565b6118ed90919063ffffffff16565b9150611746565b6117436064611735600854866118d790919063ffffffff16565b6118ed90919063ffffffff16565b91505b5b6000829050600081111561177f57611760863083611919565b61176981611b8f565b61177c8185611ddb90919063ffffffff16565b93505b505b61178c858585611919565b5050505050565b61179b61115a565b73ffffffffffffffffffffffffffffffffffffffff166117b9610ca7565b73ffffffffffffffffffffffffffffffffffffffff161461180f576040517f08c379a0000000000000000000000000000000000000000000000000000000008152600401611806906127dc565b60405180910390fd5b565b6000600560009054906101000a900473ffffffffffffffffffffffffffffffffffffffff16905081600560006101000a81548173ffffffffffffffffffffffffffffffffffffffff021916908373ffffffffffffffffffffffffffffffffffffffff1602179055508173ffffffffffffffffffffffffffffffffffffffff168173ffffffffffffffffffffffffffffffffffffffff167f8be0079c531659141344cd1fd0a4f28419497f9722a3daafe3b4186f6b6457e060405160405180910390a35050565b600081836118e591906127fc565b905092915050565b600081836118fb919061286d565b905092915050565b6000818361191191906122f8565b905092915050565b600073ffffffffffffffffffffffffffffffffffffffff168373ffffffffffffffffffffffffffffffffffffffff1603611988576040517f08c379a000000000000000000000000000000000000000000000000000000000815260040161197f90612910565b60405180910390fd5b600073ffffffffffffffffffffffffffffffffffffffff168273ffffffffffffffffffffffffffffffffffffffff16036119f7576040517f08c379a00000000000000000000000000000000000000000000000000000000081526004016119ee906129a2565b60405180910390fd5b611a02838383611df1565b60008060008573ffffffffffffffffffffffffffffffffffffffff1673ffffffffffffffffffffffffffffffffffffffff16815260200190815260200160002054905081811015611a88576040517f08c379a0000000000000000000000000000000000000000000000000000000008152600401611a7f90612a34565b60405180910390fd5b8181036000808673ffffffffffffffffffffffffffffffffffffffff1673ffffffffffffffffffffffffffffffffffffffff16815260200190815260200160002081905550816000808573ffffffffffffffffffffffffffffffffffffffff1673ffffffffffffffffffffffffffffffffffffffff168152602001908152602001600020600082825401925050819055508273ffffffffffffffffffffffffffffffffffffffff168473ffffffffffffffffffffffffffffffffffffffff167fddf252ad1be2c89b69c2b068fc378daa952ba7f163c4a11628f55a4df523b3ef84604051611b769190612054565b60405180910390a3611b89848484611df6565b50505050565b611bbc30600c60009054906101000a900473ffffffffffffffffffffffffffffffffffffffff1683611162565b30600b600081548110611bd257611bd1612a54565b5b9060005260206000200160006101000a81548173ffffffffffffffffffffffffffffffffffffffff021916908373ffffffffffffffffffffffffffffffffffffffff160217905550600c60009054906101000a900473ffffffffffffffffffffffffffffffffffffffff1673ffffffffffffffffffffffffffffffffffffffff1663ad5c46486040518163ffffffff1660e01b8152600401602060405180830381865afa158015611c87573d6000803e3d6000fd5b505050506040513d601f19601f82011682018060405250810190611cab9190612a98565b600b600181548110611cc057611cbf612a54565b5b9060005260206000200160006101000a81548173ffffffffffffffffffffffffffffffffffffffff021916908373ffffffffffffffffffffffffffffffffffffffff160217905550600c60009054906101000a900473ffffffffffffffffffffffffffffffffffffffff1673ffffffffffffffffffffffffffffffffffffffff166318cbafe5826000600b600a60019054906101000a900473ffffffffffffffffffffffffffffffffffffffff16426040518663ffffffff1660e01b8152600401611d8f959493929190612c24565b6000604051808303816000875af1158015611dae573d6000803e3d6000fd5b505050506040513d6000823e3d601f19601f82011682018060405250810190611dd79190612ddb565b5050565b60008183611de99190612e24565b905092915050565b505050565b505050565b600081519050919050565b600082825260208201905092915050565b60005b83811015611e35578082015181840152602081019050611e1a565b60008484015250505050565b6000601f19601f8301169050919050565b6000611e5d82611dfb565b611e678185611e06565b9350611e77818560208601611e17565b611e8081611e41565b840191505092915050565b60006020820190508181036000830152611ea58184611e52565b905092915050565b6000604051905090565b600080fd5b600080fd5b600073ffffffffffffffffffffffffffffffffffffffff82169050919050565b6000611eec82611ec1565b9050919050565b611efc81611ee1565b8114611f0757600080fd5b50565b600081359050611f1981611ef3565b92915050565b6000819050919050565b611f3281611f1f565b8114611f3d57600080fd5b50565b600081359050611f4f81611f29565b92915050565b60008060408385031215611f6c57611f6b611eb7565b5b6000611f7a85828601611f0a565b9250506020611f8b85828601611f40565b9150509250929050565b60008115159050919050565b611faa81611f95565b82525050565b6000602082019050611fc56000830184611fa1565b92915050565b6000819050919050565b6000611ff0611feb611fe684611ec1565b611fcb565b611ec1565b9050919050565b600061200282611fd5565b9050919050565b600061201482611ff7565b9050919050565b61202481612009565b82525050565b600060208201905061203f600083018461201b565b92915050565b61204e81611f1f565b82525050565b60006020820190506120696000830184612045565b92915050565b60008060006060848603121561208857612087611eb7565b5b600061209686828701611f0a565b93505060206120a786828701611f0a565b92505060406120b886828701611f40565b9150509250925092565b6120cb81611ee1565b82525050565b60006020820190506120e660008301846120c2565b92915050565b600060ff82169050919050565b612102816120ec565b82525050565b600060208201905061211d60008301846120f9565b92915050565b60006020828403121561213957612138611eb7565b5b600061214784828501611f0a565b91505092915050565b60006020828403121561216657612165611eb7565b5b600061217484828501611f40565b91505092915050565b6000806040838503121561219457612193611eb7565b5b60006121a285828601611f0a565b92505060206121b385828601611f0a565b9150509250929050565b6121c681611f95565b81146121d157600080fd5b50565b6000813590506121e3816121bd565b92915050565b6000602082840312156121ff576121fe611eb7565b5b600061220d848285016121d4565b91505092915050565b60008060006060848603121561222f5761222e611eb7565b5b600061223d86828701611f40565b935050602061224e86828701611f40565b925050604061225f86828701611f40565b9150509250925092565b7f4e487b7100000000000000000000000000000000000000000000000000000000600052602260045260246000fd5b600060028204905060018216806122b057607f821691505b6020821081036122c3576122c2612269565b5b50919050565b7f4e487b7100000000000000000000000000000000000000000000000000000000600052601160045260246000fd5b600061230382611f1f565b915061230e83611f1f565b9250828201905080821115612326576123256122c9565b5b92915050565b7f45524332303a2064656372656173656420616c6c6f77616e63652062656c6f7760008201527f207a65726f000000000000000000000000000000000000000000000000000000602082015250565b6000612388602583611e06565b91506123938261232c565b604082019050919050565b600060208201905081810360008301526123b78161237b565b9050919050565b7f5461782063616e6e6f74206265206d6f7265207468616e203235250000000000600082015250565b60006123f4601b83611e06565b91506123ff826123be565b602082019050919050565b60006020820190508181036000830152612423816123e7565b9050919050565b7f4f776e61626c653a206e6577206f776e657220697320746865207a65726f206160008201527f6464726573730000000000000000000000000000000000000000000000000000602082015250565b6000612486602683611e06565b91506124918261242a565b604082019050919050565b600060208201905081810360008301526124b581612479565b9050919050565b7f45524332303a20617070726f76652066726f6d20746865207a65726f2061646460008201527f7265737300000000000000000000000000000000000000000000000000000000602082015250565b6000612518602483611e06565b9150612523826124bc565b604082019050919050565b600060208201905081810360008301526125478161250b565b9050919050565b7f45524332303a20617070726f766520746f20746865207a65726f20616464726560008201527f7373000000000000000000000000000000000000000000000000000000000000602082015250565b60006125aa602283611e06565b91506125b58261254e565b604082019050919050565b600060208201905081810360008301526125d98161259d565b9050919050565b7f45524332303a20696e73756666696369656e7420616c6c6f77616e6365000000600082015250565b6000612616601d83611e06565b9150612621826125e0565b602082019050919050565b6000602082019050818103600083015261264581612609565b9050919050565b7f54726164696e67206973206e6f7420656e61626c6564207965742e0000000000600082015250565b6000612682601b83611e06565b915061268d8261264c565b602082019050919050565b600060208201905081810360008301526126b181612675565b9050919050565b7f4164647265737320697320626c61636b6c697374656400000000000000000000600082015250565b60006126ee601683611e06565b91506126f9826126b8565b602082019050919050565b6000602082019050818103600083015261271d816126e1565b9050919050565b7f45786365656473206d61782077616c6c6574206c696d69740000000000000000600082015250565b600061275a601883611e06565b915061276582612724565b602082019050919050565b600060208201905081810360008301526127898161274d565b9050919050565b7f4f776e61626c653a2063616c6c6572206973206e6f7420746865206f776e6572600082015250565b60006127c6602083611e06565b91506127d182612790565b602082019050919050565b600060208201905081810360008301526127f5816127b9565b9050919050565b600061280782611f1f565b915061281283611f1f565b925082820261282081611f1f565b91508282048414831517612837576128366122c9565b5b5092915050565b7f4e487b7100000000000000000000000000000000000000000000000000000000600052601260045260246000fd5b600061287882611f1f565b915061288383611f1f565b9250826128935761289261283e565b5b828204905092915050565b7f45524332303a207472616e736665722066726f6d20746865207a65726f20616460008201527f6472657373000000000000000000000000000000000000000000000000000000602082015250565b60006128fa602583611e06565b91506129058261289e565b604082019050919050565b60006020820190508181036000830152612929816128ed565b9050919050565b7f45524332303a207472616e7366657220746f20746865207a65726f206164647260008201527f6573730000000000000000000000000000000000000000000000000000000000602082015250565b600061298c602383611e06565b915061299782612930565b604082019050919050565b600060208201905081810360008301526129bb8161297f565b9050919050565b7f45524332303a207472616e7366657220616d6f756e742065786365656473206260008201527f616c616e63650000000000000000000000000000000000000000000000000000602082015250565b6000612a1e602683611e06565b9150612a29826129c2565b604082019050919050565b60006020820190508181036000830152612a4d81612a11565b9050919050565b7f4e487b7100000000000000000000000000000000000000000000000000000000600052603260045260246000fd5b600081519050612a9281611ef3565b92915050565b600060208284031215612aae57612aad611eb7565b5b6000612abc84828501612a83565b91505092915050565b6000819050919050565b6000612aea612ae5612ae084612ac5565b611fcb565b611f1f565b9050919050565b612afa81612acf565b82525050565b600081549050919050565b600082825260208201905092915050565b60008190508160005260206000209050919050565b612b3a81611ee1565b82525050565b6000612b4c8383612b31565b60208301905092915050565b60008160001c9050919050565b600073ffffffffffffffffffffffffffffffffffffffff82169050919050565b6000612b98612b9383612b58565b612b65565b9050919050565b6000612bab8254612b85565b9050919050565b6000600182019050919050565b6000612bca82612b00565b612bd48185612b0b565b9350612bdf83612b1c565b8060005b83811015612c1757612bf482612b9f565b612bfe8882612b40565b9750612c0983612bb2565b925050600181019050612be3565b5085935050505092915050565b600060a082019050612c396000830188612045565b612c466020830187612af1565b8181036040830152612c588186612bbf565b9050612c6760608301856120c2565b612c746080830184612045565b9695505050505050565b600080fd5b7f4e487b7100000000000000000000000000000000000000000000000000000000600052604160045260246000fd5b612cbb82611e41565b810181811067ffffffffffffffff82111715612cda57612cd9612c83565b5b80604052505050565b6000612ced611ead565b9050612cf98282612cb2565b919050565b600067ffffffffffffffff821115612d1957612d18612c83565b5b602082029050602081019050919050565b600080fd5b600081519050612d3e81611f29565b92915050565b6000612d57612d5284612cfe565b612ce3565b90508083825260208201905060208402830185811115612d7a57612d79612d2a565b5b835b81811015612da35780612d8f8882612d2f565b845260208401935050602081019050612d7c565b5050509392505050565b600082601f830112612dc257612dc1612c7e565b5b8151612dd2848260208601612d44565b91505092915050565b600060208284031215612df157612df0611eb7565b5b600082015167ffffffffffffffff811115612e0f57612e0e611ebc565b5b612e1b84828501612dad565b91505092915050565b6000612e2f82611f1f565b9150612e3a83611f1f565b9250828203905081811115612e5257612e516122c9565b5b9291505056fea264697066735822122057b1f8f9a2e49e12c493066548183d20dbb3169d44017cc3d20ab79676519a3e64736f6c63430008110033",
  "linkReferences": {},
  "deployedLinkReferences": {}
}