{
  "_format": "hh-sol-artifact-1",
  "contractName": "FriscoToken",
  "sourceName": "contracts/FriscoToken.sol",
  "abi": [
    {
      "inputs": [
        {
          "internalType": "address",
          "name": "_friscoToken",
          "type": "address"
        }
      ],
      "stateMutability": "nonpayable",
      "type": "constructor"
    },
    {
      "anonymous": false,
      "inputs": [
        {
          "indexed": true,
          "internalType": "address",
          "name": "owner",
          "type": "address"
        },
        {
          "indexed": true,
          "internalType": "address",
          "name": "spender",
          "type": "address"
        },
        {
          "indexed": false,
          "internalType": "uint256",
          "name": "value",
          "type": "uint256"
        }
      ],
      "name": "Approval",
      "type": "event"
    },
    {
      "anonymous": false,
      "inputs": [
        {
          "indexed": true,
          "internalType": "address",
          "name": "previousOwner",
          "type": "address"
        },
        {
          "indexed": true,
          "internalType": "address",
          "name": "newOwner",
          "type": "address"
        }
      ],
      "name": "OwnershipTransferred",
      "type": "event"
    },
    {
      "anonymous": false,
      "inputs": [
        {
          "indexed": true,
          "internalType": "address",
          "name": "from",
          "type": "address"
        },
        {
          "indexed": true,
          "internalType": "address",
          "name": "to",
          "type": "address"
        },
        {
          "indexed": false,
          "internalType": "uint256",
          "name": "value",
          "type": "uint256"
        }
      ],
      "name": "Transfer",
      "type": "event"
    },
    {
      "inputs": [
        {
          "internalType": "address",
          "name": "owner",
          "type": "address"
        },
        {
          "internalType": "address",
          "name": "spender",
          "type": "address"
        }
      ],
      "name": "allowance",
      "outputs": [
        {
          "internalType": "uint256",
          "name": "",
          "type": "uint256"
        }
      ],
      "stateMutability": "view",
      "type": "function"
    },
    {
      "inputs": [
        {
          "internalType": "address",
          "name": "spender",
          "type": "address"
        },
        {
          "internalType": "uint256",
          "name": "amount",
          "type": "uint256"
        }
      ],
      "name": "approve",
      "outputs": [
        {
          "internalType": "bool",
          "name": "",
          "type": "bool"
        }
      ],
      "stateMutability": "nonpayable",
      "type": "function"
    },
    {
      "inputs": [
        {
          "internalType": "address",
          "name": "account",
          "type": "address"
        }
      ],
      "name": "balanceOf",
      "outputs": [
        {
          "internalType": "uint256",
          "name": "",
          "type": "uint256"
        }
      ],
      "stateMutability": "view",
      "type": "function"
    },
    {
      "inputs": [
        {
          "internalType": "address",
          "name": "_address",
          "type": "address"
        }
      ],
      "name": "blacklistAddress",
      "outputs": [],
      "stateMutability": "nonpayable",
      "type": "function"
    },
    {
      "inputs": [],
      "name": "buyTax",
      "outputs": [
        {
          "internalType": "uint256",
          "name": "",
          "type": "uint256"
        }
      ],
      "stateMutability": "view",
      "type": "function"
    },
    {
      "inputs": [],
      "name": "decimals",
      "outputs": [
        {
          "internalType": "uint8",
          "name": "",
          "type": "uint8"
        }
      ],
      "stateMutability": "view",
      "type": "function"
    },
    {
      "inputs": [
        {
          "internalType": "address",
          "name": "spender",
          "type": "address"
        },
        {
          "internalType": "uint256",
          "name": "subtractedValue",
          "type": "uint256"
        }
      ],
      "name": "decreaseAllowance",
      "outputs": [
        {
          "internalType": "bool",
          "name": "",
          "type": "bool"
        }
      ],
      "stateMutability": "nonpayable",
      "type": "function"
    },
    {
      "inputs": [
        {
          "internalType": "bool",
          "name": "_enable",
          "type": "bool"
        }
      ],
      "name": "enableTrading",
      "outputs": [],
      "stateMutability": "nonpayable",
      "type": "function"
    },
    {
      "inputs": [
        {
          "internalType": "address",
          "name": "_address",
          "type": "address"
        }
      ],
      "name": "excludeFromTax",
      "outputs": [],
      "stateMutability": "nonpayable",
      "type": "function"
    },
    {
      "inputs": [],
      "name": "friscoToken",
      "outputs": [
        {
          "internalType": "contract Token",
          "name": "",
          "type": "address"
        }
      ],
      "stateMutability": "view",
      "type": "function"
    },
    {
      "inputs": [
        {
          "internalType": "address",
          "name": "_address",
          "type": "address"
        }
      ],
      "name": "includeInTax",
      "outputs": [],
      "stateMutability": "nonpayable",
      "type": "function"
    },
    {
      "inputs": [
        {
          "internalType": "address",
          "name": "spender",
          "type": "address"
        },
        {
          "internalType": "uint256",
          "name": "addedValue",
          "type": "uint256"
        }
      ],
      "name": "increaseAllowance",
      "outputs": [
        {
          "internalType": "bool",
          "name": "",
          "type": "bool"
        }
      ],
      "stateMutability": "nonpayable",
      "type": "function"
    },
    {
      "inputs": [
        {
          "internalType": "address",
          "name": "",
          "type": "address"
        }
      ],
      "name": "isBlacklisted",
      "outputs": [
        {
          "internalType": "bool",
          "name": "",
          "type": "bool"
        }
      ],
      "stateMutability": "view",
      "type": "function"
    },
    {
      "inputs": [
        {
          "internalType": "address",
          "name": "",
          "type": "address"
        }
      ],
      "name": "isExcludedFromTax",
      "outputs": [
        {
          "internalType": "bool",
          "name": "",
          "type": "bool"
        }
      ],
      "stateMutability": "view",
      "type": "function"
    },
    {
      "inputs": [
        {
          "internalType": "address",
          "name": "_address",
          "type": "address"
        }
      ],
      "name": "isTaxable",
      "outputs": [
        {
          "internalType": "bool",
          "name": "",
          "type": "bool"
        }
      ],
      "stateMutability": "view",
      "type": "function"
    },
    {
      "inputs": [
        {
          "internalType": "address",
          "name": "",
          "type": "address"
        }
      ],
      "name": "isWhitelisted",
      "outputs": [
        {
          "internalType": "bool",
          "name": "",
          "type": "bool"
        }
      ],
      "stateMutability": "view",
      "type": "function"
    },
    {
      "inputs": [],
      "name": "maxWalletLimit",
      "outputs": [
        {
          "internalType": "uint256",
          "name": "",
          "type": "uint256"
        }
      ],
      "stateMutability": "view",
      "type": "function"
    },
    {
      "inputs": [],
      "name": "name",
      "outputs": [
        {
          "internalType": "string",
          "name": "",
          "type": "string"
        }
      ],
      "stateMutability": "view",
      "type": "function"
    },
    {
      "inputs": [],
      "name": "owner",
      "outputs": [
        {
          "internalType": "address",
          "name": "",
          "type": "address"
        }
      ],
      "stateMutability": "view",
      "type": "function"
    },
    {
      "inputs": [
        {
          "internalType": "uint256",
          "name": "",
          "type": "uint256"
        }
      ],
      "name": "path",
      "outputs": [
        {
          "internalType": "address",
          "name": "",
          "type": "address"
        }
      ],
      "stateMutability": "view",
      "type": "function"
    },
    {
      "inputs": [
        {
          "internalType": "address",
          "name": "_address",
          "type": "address"
        }
      ],
      "name": "removeBlacklist",
      "outputs": [],
      "stateMutability": "nonpayable",
      "type": "function"
    },
    {
      "inputs": [],
      "name": "renounceOwnership",
      "outputs": [],
      "stateMutability": "nonpayable",
      "type": "function"
    },
    {
      "inputs": [],
      "name": "sellTax",
      "outputs": [
        {
          "internalType": "uint256",
          "name": "",
          "type": "uint256"
        }
      ],
      "stateMutability": "view",
      "type": "function"
    },
    {
      "inputs": [],
      "name": "symbol",
      "outputs": [
        {
          "internalType": "string",
          "name": "",
          "type": "string"
        }
      ],
      "stateMutability": "view",
      "type": "function"
    },
    {
      "inputs": [],
      "name": "taxWallet",
      "outputs": [
        {
          "internalType": "address",
          "name": "",
          "type": "address"
        }
      ],
      "stateMutability": "view",
      "type": "function"
    },
    {
      "inputs": [],
      "name": "totalSupply",
      "outputs": [
        {
          "internalType": "uint256",
          "name": "",
          "type": "uint256"
        }
      ],
      "stateMutability": "view",
      "type": "function"
    },
    {
      "inputs": [],
      "name": "tradingEnabled",
      "outputs": [
        {
          "internalType": "bool",
          "name": "",
          "type": "bool"
        }
      ],
      "stateMutability": "view",
      "type": "function"
    },
    {
      "inputs": [
        {
          "internalType": "address",
          "name": "to",
          "type": "address"
        },
        {
          "internalType": "uint256",
          "name": "amount",
          "type": "uint256"
        }
      ],
      "name": "transfer",
      "outputs": [
        {
          "internalType": "bool",
          "name": "",
          "type": "bool"
        }
      ],
      "stateMutability": "nonpayable",
      "type": "function"
    },
    {
      "inputs": [
        {
          "internalType": "address",
          "name": "from",
          "type": "address"
        },
        {
          "internalType": "address",
          "name": "to",
          "type": "address"
        },
        {
          "internalType": "uint256",
          "name": "amount",
          "type": "uint256"
        }
      ],
      "name": "transferFrom",
      "outputs": [
        {
          "internalType": "bool",
          "name": "",
          "type": "bool"
        }
      ],
      "stateMutability": "nonpayable",
      "type": "function"
    },
    {
      "inputs": [
        {
          "internalType": "address",
          "name": "newOwner",
          "type": "address"
        }
      ],
      "name": "transferOwnership",
      "outputs": [],
      "stateMutability": "nonpayable",
      "type": "function"
    },
    {
      "inputs": [],
      "name": "transferTax",
      "outputs": [
        {
          "internalType": "uint256",
          "name": "",
          "type": "uint256"
        }
      ],
      "stateMutability": "view",
      "type": "function"
    },
    {
      "inputs": [],
      "name": "uniswapV2Pair",
      "outputs": [
        {
          "internalType": "address",
          "name": "",
          "type": "address"
        }
      ],
      "stateMutability": "view",
      "type": "function"
    },
    {
      "inputs": [],
      "name": "uniswapV2Router",
      "outputs": [
        {
          "internalType": "contract IUniswapV2Router02",
          "name": "",
          "type": "address"
        }
      ],
      "stateMutability": "view",
      "type": "function"
    },
    {
      "inputs": [
        {
          "internalType": "address",
          "name": "_newTaxWallet",
          "type": "address"
        }
      ],
      "name": "updateTaxWallet",
      "outputs": [],
      "stateMutability": "nonpayable",
      "type": "function"
    },
    {
      "inputs": [
        {
          "internalType": "uint256",
          "name": "_buyTax",
          "type": "uint256"
        },
        {
          "internalType": "uint256",
          "name": "_sellTax",
          "type": "uint256"
        },
        {
          "internalType": "uint256",
          "name": "_transferTax",
          "type": "uint256"
        }
      ],
      "name": "updateTaxes",
      "outputs": [],
      "stateMutability": "nonpayable",
      "type": "function"
    },
    {
      "inputs": [
        {
          "internalType": "address",
          "name": "_address",
          "type": "address"
        }
      ],
      "name": "whitelistAddress",
      "outputs": [],
      "stateMutability": "nonpayable",
      "type": "function"
    },
    {
      "stateMutability": "payable",
      "type": "receive"
    }
  ],
  "bytecode": "0x60806040526003600655600860075560016008556c193e5939a08ce9dbd4800000006009556000600a60006101000a81548160ff0219169083151502179055503480156200004c57600080fd5b50604051620039933803806200399383398181016040528101906200007291906200057b565b6040518060400160405280600b81526020017f46726973636f546f6b656e0000000000000000000000000000000000000000008152506040518060400160405280600381526020017f464c4d00000000000000000000000000000000000000000000000000000000008152508160039081620000ef919062000827565b50806004908162000101919062000827565b50505062000124620001186200044360201b60201c565b6200044b60201b60201c565b80600e60006101000a81548173ffffffffffffffffffffffffffffffffffffffff021916908373ffffffffffffffffffffffffffffffffffffffff16021790555073e592427a0aece92de3edee1f18e0157c05861564600c60006101000a81548173ffffffffffffffffffffffffffffffffffffffff021916908373ffffffffffffffffffffffffffffffffffffffff160217905550600c60009054906101000a900473ffffffffffffffffffffffffffffffffffffffff1673ffffffffffffffffffffffffffffffffffffffff1663c45a01556040518163ffffffff1660e01b8152600401602060405180830381865afa15801562000228573d6000803e3d6000fd5b505050506040513d601f19601f820116820180604052508101906200024e91906200057b565b73ffffffffffffffffffffffffffffffffffffffff1663c9c6539630600c60009054906101000a900473ffffffffffffffffffffffffffffffffffffffff1673ffffffffffffffffffffffffffffffffffffffff1663ad5c46486040518163ffffffff1660e01b8152600401602060405180830381865afa158015620002d8573d6000803e3d6000fd5b505050506040513d601f19601f82011682018060405250810190620002fe91906200057b565b6040518363ffffffff1660e01b81526004016200031d9291906200091f565b6020604051808303816000875af11580156200033d573d6000803e3d6000fd5b505050506040513d601f19601f820116820180604052508101906200036391906200057b565b600d60006101000a81548173ffffffffffffffffffffffffffffffffffffffff021916908373ffffffffffffffffffffffffffffffffffffffff16021790555033600a60016101000a81548173ffffffffffffffffffffffffffffffffffffffff021916908373ffffffffffffffffffffffffffffffffffffffff1602179055506001601160003373ffffffffffffffffffffffffffffffffffffffff1673ffffffffffffffffffffffffffffffffffffffff16815260200190815260200160002060006101000a81548160ff021916908315150217905550506200094c565b600033905090565b6000600560009054906101000a900473ffffffffffffffffffffffffffffffffffffffff16905081600560006101000a81548173ffffffffffffffffffffffffffffffffffffffff021916908373ffffffffffffffffffffffffffffffffffffffff1602179055508173ffffffffffffffffffffffffffffffffffffffff168173ffffffffffffffffffffffffffffffffffffffff167f8be0079c531659141344cd1fd0a4f28419497f9722a3daafe3b4186f6b6457e060405160405180910390a35050565b600080fd5b600073ffffffffffffffffffffffffffffffffffffffff82169050919050565b6000620005438262000516565b9050919050565b620005558162000536565b81146200056157600080fd5b50565b60008151905062000575816200054a565b92915050565b60006020828403121562000594576200059362000511565b5b6000620005a48482850162000564565b91505092915050565b600081519050919050565b7f4e487b7100000000000000000000000000000000000000000000000000000000600052604160045260246000fd5b7f4e487b7100000000000000000000000000000000000000000000000000000000600052602260045260246000fd5b600060028204905060018216806200062f57607f821691505b602082108103620006455762000644620005e7565b5b50919050565b60008190508160005260206000209050919050565b60006020601f8301049050919050565b600082821b905092915050565b600060088302620006af7fffffffffffffffffffffffffffffffffffffffffffffffffffffffffffffffff8262000670565b620006bb868362000670565b95508019841693508086168417925050509392505050565b6000819050919050565b6000819050919050565b60006200070862000702620006fc84620006d3565b620006dd565b620006d3565b9050919050565b6000819050919050565b6200072483620006e7565b6200073c62000733826200070f565b8484546200067d565b825550505050565b600090565b6200075362000744565b6200076081848462000719565b505050565b5b8181101562000788576200077c60008262000749565b60018101905062000766565b5050565b601f821115620007d757620007a1816200064b565b620007ac8462000660565b81016020851015620007bc578190505b620007d4620007cb8562000660565b83018262000765565b50505b505050565b600082821c905092915050565b6000620007fc60001984600802620007dc565b1980831691505092915050565b6000620008178383620007e9565b9150826002028217905092915050565b6200083282620005ad565b67ffffffffffffffff8111156200084e576200084d620005b8565b5b6200085a825462000616565b620008678282856200078c565b600060209050601f8311600181146200089f57600084156200088a578287015190505b62000896858262000809565b86555062000906565b601f198416620008af866200064b565b60005b82811015620008d957848901518255600182019150602085019450602081019050620008b2565b86831015620008f95784890151620008f5601f891682620007e9565b8355505b6001600288020188555050505b505050505050565b620009198162000536565b82525050565b60006040820190506200093660008301856200090e565b6200094560208301846200090e565b9392505050565b613037806200095c6000396000f3fe6080604052600436106102135760003560e01c806374c9f60311610118578063cc1776d3116100a0578063f275f64b1161006f578063f275f64b146107fc578063f2e76c2514610825578063f2fde38b1461084e578063f3290d7514610877578063fe575a87146108a05761021a565b8063cc1776d314610742578063dd62ed3e1461076d578063e17c4c74146107aa578063eb91e651146107d35761021a565b806395d89b41116100e757806395d89b4114610623578063a457c2d71461064e578063a9059cbb1461068b578063af6d1fe4146106c8578063cb4ca631146107055761021a565b806374c9f603146105675780638124f7ac14610590578063819906fe146105bb5780638da5cb5b146105f85761021a565b80633af32abf1161019b5780634f7041a51161016a5780634f7041a51461049457806360d1259e146104bf57806366a88d96146104e857806370a0823114610513578063715018a6146105505761021a565b80633af32abf146103d8578063415665851461041557806349bd5a5e1461043e5780634ada218b146104695761021a565b806319474250116101e257806319474250146102dd57806323b872dd146103085780632dc0562d14610345578063313ce56714610370578063395093511461039b5761021a565b806306fdde031461021f578063095ea7b31461024a5780631694505e1461028757806318160ddd146102b25761021a565b3661021a57005b600080fd5b34801561022b57600080fd5b506102346108dd565b6040516102419190611f7f565b60405180910390f35b34801561025657600080fd5b50610271600480360381019061026c9190612049565b61096f565b60405161027e91906120a4565b60405180910390f35b34801561029357600080fd5b5061029c610992565b6040516102a9919061211e565b60405180910390f35b3480156102be57600080fd5b506102c76109b8565b6040516102d49190612148565b60405180910390f35b3480156102e957600080fd5b506102f26109c2565b6040516102ff9190612184565b60405180910390f35b34801561031457600080fd5b5061032f600480360381019061032a919061219f565b6109e8565b60405161033c91906120a4565b60405180910390f35b34801561035157600080fd5b5061035a610a17565b6040516103679190612201565b60405180910390f35b34801561037c57600080fd5b50610385610a3d565b6040516103929190612238565b60405180910390f35b3480156103a757600080fd5b506103c260048036038101906103bd9190612049565b610a46565b6040516103cf91906120a4565b60405180910390f35b3480156103e457600080fd5b506103ff60048036038101906103fa9190612253565b610a7d565b60405161040c91906120a4565b60405180910390f35b34801561042157600080fd5b5061043c60048036038101906104379190612253565b610a9d565b005b34801561044a57600080fd5b50610453610b00565b6040516104609190612201565b60405180910390f35b34801561047557600080fd5b5061047e610b26565b60405161048b91906120a4565b60405180910390f35b3480156104a057600080fd5b506104a9610b39565b6040516104b69190612148565b60405180910390f35b3480156104cb57600080fd5b506104e660048036038101906104e19190612253565b610b3f565b005b3480156104f457600080fd5b506104fd610ba2565b60405161050a9190612148565b60405180910390f35b34801561051f57600080fd5b5061053a60048036038101906105359190612253565b610ba8565b6040516105479190612148565b60405180910390f35b34801561055c57600080fd5b50610565610bf0565b005b34801561057357600080fd5b5061058e60048036038101906105899190612253565b610c04565b005b34801561059c57600080fd5b506105a5610c50565b6040516105b29190612148565b60405180910390f35b3480156105c757600080fd5b506105e260048036038101906105dd9190612253565b610c56565b6040516105ef91906120a4565b60405180910390f35b34801561060457600080fd5b5061060d610d03565b60405161061a9190612201565b60405180910390f35b34801561062f57600080fd5b50610638610d2d565b6040516106459190611f7f565b60405180910390f35b34801561065a57600080fd5b5061067560048036038101906106709190612049565b610dbf565b60405161068291906120a4565b60405180910390f35b34801561069757600080fd5b506106b260048036038101906106ad9190612049565b610e36565b6040516106bf91906120a4565b60405180910390f35b3480156106d457600080fd5b506106ef60048036038101906106ea9190612280565b610e59565b6040516106fc9190612201565b60405180910390f35b34801561071157600080fd5b5061072c60048036038101906107279190612253565b610e98565b60405161073991906120a4565b60405180910390f35b34801561074e57600080fd5b50610757610eb8565b6040516107649190612148565b60405180910390f35b34801561077957600080fd5b50610794600480360381019061078f91906122ad565b610ebe565b6040516107a19190612148565b60405180910390f35b3480156107b657600080fd5b506107d160048036038101906107cc9190612253565b610f45565b005b3480156107df57600080fd5b506107fa60048036038101906107f59190612253565b610fa8565b005b34801561080857600080fd5b50610823600480360381019061081e9190612319565b61100b565b005b34801561083157600080fd5b5061084c60048036038101906108479190612346565b611030565b005b34801561085a57600080fd5b5061087560048036038101906108709190612253565b6110b0565b005b34801561088357600080fd5b5061089e60048036038101906108999190612253565b611133565b005b3480156108ac57600080fd5b506108c760048036038101906108c29190612253565b611196565b6040516108d491906120a4565b60405180910390f35b6060600380546108ec906123c8565b80601f0160208091040260200160405190810160405280929190818152602001828054610918906123c8565b80156109655780601f1061093a57610100808354040283529160200191610965565b820191906000526020600020905b81548152906001019060200180831161094857829003601f168201915b5050505050905090565b60008061097a6111b6565b90506109878185856111be565b600191505092915050565b600c60009054906101000a900473ffffffffffffffffffffffffffffffffffffffff1681565b6000600254905090565b600e60009054906101000a900473ffffffffffffffffffffffffffffffffffffffff1681565b6000806109f36111b6565b9050610a00858285611387565b610a0b858585611413565b60019150509392505050565b600a60019054906101000a900473ffffffffffffffffffffffffffffffffffffffff1681565b60006012905090565b600080610a516111b6565b9050610a72818585610a638589610ebe565b610a6d9190612428565b6111be565b600191505092915050565b600f6020528060005260406000206000915054906101000a900460ff1681565b610aa5611887565b6001600f60008373ffffffffffffffffffffffffffffffffffffffff1673ffffffffffffffffffffffffffffffffffffffff16815260200190815260200160002060006101000a81548160ff02191690831515021790555050565b600d60009054906101000a900473ffffffffffffffffffffffffffffffffffffffff1681565b600a60009054906101000a900460ff1681565b60065481565b610b47611887565b6001601160008373ffffffffffffffffffffffffffffffffffffffff1673ffffffffffffffffffffffffffffffffffffffff16815260200190815260200160002060006101000a81548160ff02191690831515021790555050565b60095481565b60008060008373ffffffffffffffffffffffffffffffffffffffff1673ffffffffffffffffffffffffffffffffffffffff168152602001908152602001600020549050919050565b610bf8611887565b610c026000611905565b565b610c0c611887565b80600a60016101000a81548173ffffffffffffffffffffffffffffffffffffffff021916908373ffffffffffffffffffffffffffffffffffffffff16021790555050565b60085481565b6000601160008373ffffffffffffffffffffffffffffffffffffffff1673ffffffffffffffffffffffffffffffffffffffff16815260200190815260200160002060009054906101000a900460ff16158015610cfc5750600f60008373ffffffffffffffffffffffffffffffffffffffff1673ffffffffffffffffffffffffffffffffffffffff16815260200190815260200160002060009054906101000a900460ff16155b9050919050565b6000600560009054906101000a900473ffffffffffffffffffffffffffffffffffffffff16905090565b606060048054610d3c906123c8565b80601f0160208091040260200160405190810160405280929190818152602001828054610d68906123c8565b8015610db55780601f10610d8a57610100808354040283529160200191610db5565b820191906000526020600020905b815481529060010190602001808311610d9857829003601f168201915b5050505050905090565b600080610dca6111b6565b90506000610dd88286610ebe565b905083811015610e1d576040517f08c379a0000000000000000000000000000000000000000000000000000000008152600401610e14906124ce565b60405180910390fd5b610e2a82868684036111be565b60019250505092915050565b600080610e416111b6565b9050610e4e818585611413565b600191505092915050565b600b8181548110610e6957600080fd5b906000526020600020016000915054906101000a900473ffffffffffffffffffffffffffffffffffffffff1681565b60116020528060005260406000206000915054906101000a900460ff1681565b60075481565b6000600160008473ffffffffffffffffffffffffffffffffffffffff1673ffffffffffffffffffffffffffffffffffffffff16815260200190815260200160002060008373ffffffffffffffffffffffffffffffffffffffff1673ffffffffffffffffffffffffffffffffffffffff16815260200190815260200160002054905092915050565b610f4d611887565b6000601160008373ffffffffffffffffffffffffffffffffffffffff1673ffffffffffffffffffffffffffffffffffffffff16815260200190815260200160002060006101000a81548160ff02191690831515021790555050565b610fb0611887565b6000601060008373ffffffffffffffffffffffffffffffffffffffff1673ffffffffffffffffffffffffffffffffffffffff16815260200190815260200160002060006101000a81548160ff02191690831515021790555050565b611013611887565b80600a60006101000a81548160ff02191690831515021790555050565b611038611887565b6019831115801561104a575060198211155b8015611057575060198111155b611096576040517f08c379a000000000000000000000000000000000000000000000000000000000815260040161108d9061253a565b60405180910390fd5b826006819055508160078190555080600881905550505050565b6110b8611887565b600073ffffffffffffffffffffffffffffffffffffffff168173ffffffffffffffffffffffffffffffffffffffff1603611127576040517f08c379a000000000000000000000000000000000000000000000000000000000815260040161111e906125cc565b60405180910390fd5b61113081611905565b50565b61113b611887565b6001601060008373ffffffffffffffffffffffffffffffffffffffff1673ffffffffffffffffffffffffffffffffffffffff16815260200190815260200160002060006101000a81548160ff02191690831515021790555050565b60106020528060005260406000206000915054906101000a900460ff1681565b600033905090565b600073ffffffffffffffffffffffffffffffffffffffff168373ffffffffffffffffffffffffffffffffffffffff160361122d576040517f08c379a00000000000000000000000000000000000000000000000000000000081526004016112249061265e565b60405180910390fd5b600073ffffffffffffffffffffffffffffffffffffffff168273ffffffffffffffffffffffffffffffffffffffff160361129c576040517f08c379a0000000000000000000000000000000000000000000000000000000008152600401611293906126f0565b60405180910390fd5b80600160008573ffffffffffffffffffffffffffffffffffffffff1673ffffffffffffffffffffffffffffffffffffffff16815260200190815260200160002060008473ffffffffffffffffffffffffffffffffffffffff1673ffffffffffffffffffffffffffffffffffffffff168152602001908152602001600020819055508173ffffffffffffffffffffffffffffffffffffffff168373ffffffffffffffffffffffffffffffffffffffff167f8c5be1e5ebec7d5bd14f71427d1e84f3dd0314c0f7b2291e5b200ac8c7c3b9258360405161137a9190612148565b60405180910390a3505050565b60006113938484610ebe565b90507fffffffffffffffffffffffffffffffffffffffffffffffffffffffffffffffff811461140d57818110156113ff576040517f08c379a00000000000000000000000000000000000000000000000000000000081526004016113f69061275c565b60405180910390fd5b61140c84848484036111be565b5b50505050565b600a60009054906101000a900460ff16611462576040517f08c379a0000000000000000000000000000000000000000000000000000000008152600401611459906127c8565b60405180910390fd5b601060008473ffffffffffffffffffffffffffffffffffffffff1673ffffffffffffffffffffffffffffffffffffffff16815260200190815260200160002060009054906101000a900460ff161580156115065750601060008373ffffffffffffffffffffffffffffffffffffffff1673ffffffffffffffffffffffffffffffffffffffff16815260200190815260200160002060009054906101000a900460ff16155b611545576040517f08c379a000000000000000000000000000000000000000000000000000000000815260040161153c90612834565b60405180910390fd5b6000806115766064611568600261155a6109b8565b6119cb90919063ffffffff16565b6119e190919063ffffffff16565b90503073ffffffffffffffffffffffffffffffffffffffff168473ffffffffffffffffffffffffffffffffffffffff16141580156115fe5750600f60008573ffffffffffffffffffffffffffffffffffffffff1673ffffffffffffffffffffffffffffffffffffffff16815260200190815260200160002060009054906101000a900460ff16155b15611661578061161f8461161187610ba8565b6119f790919063ffffffff16565b1115611660576040517f08c379a0000000000000000000000000000000000000000000000000000000008152600401611657906128a0565b60405180910390fd5b5b61166a85610c56565b1561187557600d60009054906101000a900473ffffffffffffffffffffffffffffffffffffffff1673ffffffffffffffffffffffffffffffffffffffff168573ffffffffffffffffffffffffffffffffffffffff16036116f3576116ec60646116de600654866119cb90919063ffffffff16565b6119e190919063ffffffff16565b91506117a3565b600d60009054906101000a900473ffffffffffffffffffffffffffffffffffffffff1673ffffffffffffffffffffffffffffffffffffffff168473ffffffffffffffffffffffffffffffffffffffff1603611777576117706064611762600754866119cb90919063ffffffff16565b6119e190919063ffffffff16565b91506117a2565b61179f6064611791600854866119cb90919063ffffffff16565b6119e190919063ffffffff16565b91505b5b6000829050600081111561187357600e60009054906101000a900473ffffffffffffffffffffffffffffffffffffffff1673ffffffffffffffffffffffffffffffffffffffff166323b872dd8730846040518463ffffffff1660e01b8152600401611810939291906128c0565b6020604051808303816000875af115801561182f573d6000803e3d6000fd5b505050506040513d601f19601f82011682018060405250810190611853919061290c565b5061185d81611a0d565b6118708185611c5990919063ffffffff16565b93505b505b611880858585611c6f565b5050505050565b61188f6111b6565b73ffffffffffffffffffffffffffffffffffffffff166118ad610d03565b73ffffffffffffffffffffffffffffffffffffffff1614611903576040517f08c379a00000000000000000000000000000000000000000000000000000000081526004016118fa90612985565b60405180910390fd5b565b6000600560009054906101000a900473ffffffffffffffffffffffffffffffffffffffff16905081600560006101000a81548173ffffffffffffffffffffffffffffffffffffffff021916908373ffffffffffffffffffffffffffffffffffffffff1602179055508173ffffffffffffffffffffffffffffffffffffffff168173ffffffffffffffffffffffffffffffffffffffff167f8be0079c531659141344cd1fd0a4f28419497f9722a3daafe3b4186f6b6457e060405160405180910390a35050565b600081836119d991906129a5565b905092915050565b600081836119ef9190612a16565b905092915050565b60008183611a059190612428565b905092915050565b611a3a30600c60009054906101000a900473ffffffffffffffffffffffffffffffffffffffff16836111be565b30600b600081548110611a5057611a4f612a47565b5b9060005260206000200160006101000a81548173ffffffffffffffffffffffffffffffffffffffff021916908373ffffffffffffffffffffffffffffffffffffffff160217905550600c60009054906101000a900473ffffffffffffffffffffffffffffffffffffffff1673ffffffffffffffffffffffffffffffffffffffff1663ad5c46486040518163ffffffff1660e01b8152600401602060405180830381865afa158015611b05573d6000803e3d6000fd5b505050506040513d601f19601f82011682018060405250810190611b299190612a8b565b600b600181548110611b3e57611b3d612a47565b5b9060005260206000200160006101000a81548173ffffffffffffffffffffffffffffffffffffffff021916908373ffffffffffffffffffffffffffffffffffffffff160217905550600c60009054906101000a900473ffffffffffffffffffffffffffffffffffffffff1673ffffffffffffffffffffffffffffffffffffffff166318cbafe5826000600b600a60019054906101000a900473ffffffffffffffffffffffffffffffffffffffff16426040518663ffffffff1660e01b8152600401611c0d959493929190612c17565b6000604051808303816000875af1158015611c2c573d6000803e3d6000fd5b505050506040513d6000823e3d601f19601f82011682018060405250810190611c559190612dce565b5050565b60008183611c679190612e17565b905092915050565b600073ffffffffffffffffffffffffffffffffffffffff168373ffffffffffffffffffffffffffffffffffffffff1603611cde576040517f08c379a0000000000000000000000000000000000000000000000000000000008152600401611cd590612ebd565b60405180910390fd5b600073ffffffffffffffffffffffffffffffffffffffff168273ffffffffffffffffffffffffffffffffffffffff1603611d4d576040517f08c379a0000000000000000000000000000000000000000000000000000000008152600401611d4490612f4f565b60405180910390fd5b611d58838383611ee5565b60008060008573ffffffffffffffffffffffffffffffffffffffff1673ffffffffffffffffffffffffffffffffffffffff16815260200190815260200160002054905081811015611dde576040517f08c379a0000000000000000000000000000000000000000000000000000000008152600401611dd590612fe1565b60405180910390fd5b8181036000808673ffffffffffffffffffffffffffffffffffffffff1673ffffffffffffffffffffffffffffffffffffffff16815260200190815260200160002081905550816000808573ffffffffffffffffffffffffffffffffffffffff1673ffffffffffffffffffffffffffffffffffffffff168152602001908152602001600020600082825401925050819055508273ffffffffffffffffffffffffffffffffffffffff168473ffffffffffffffffffffffffffffffffffffffff167fddf252ad1be2c89b69c2b068fc378daa952ba7f163c4a11628f55a4df523b3ef84604051611ecc9190612148565b60405180910390a3611edf848484611eea565b50505050565b505050565b505050565b600081519050919050565b600082825260208201905092915050565b60005b83811015611f29578082015181840152602081019050611f0e565b60008484015250505050565b6000601f19601f8301169050919050565b6000611f5182611eef565b611f5b8185611efa565b9350611f6b818560208601611f0b565b611f7481611f35565b840191505092915050565b60006020820190508181036000830152611f998184611f46565b905092915050565b6000604051905090565b600080fd5b600080fd5b600073ffffffffffffffffffffffffffffffffffffffff82169050919050565b6000611fe082611fb5565b9050919050565b611ff081611fd5565b8114611ffb57600080fd5b50565b60008135905061200d81611fe7565b92915050565b6000819050919050565b61202681612013565b811461203157600080fd5b50565b6000813590506120438161201d565b92915050565b600080604083850312156120605761205f611fab565b5b600061206e85828601611ffe565b925050602061207f85828601612034565b9150509250929050565b60008115159050919050565b61209e81612089565b82525050565b60006020820190506120b96000830184612095565b92915050565b6000819050919050565b60006120e46120df6120da84611fb5565b6120bf565b611fb5565b9050919050565b60006120f6826120c9565b9050919050565b6000612108826120eb565b9050919050565b612118816120fd565b82525050565b6000602082019050612133600083018461210f565b92915050565b61214281612013565b82525050565b600060208201905061215d6000830184612139565b92915050565b600061216e826120eb565b9050919050565b61217e81612163565b82525050565b60006020820190506121996000830184612175565b92915050565b6000806000606084860312156121b8576121b7611fab565b5b60006121c686828701611ffe565b93505060206121d786828701611ffe565b92505060406121e886828701612034565b9150509250925092565b6121fb81611fd5565b82525050565b600060208201905061221660008301846121f2565b92915050565b600060ff82169050919050565b6122328161221c565b82525050565b600060208201905061224d6000830184612229565b92915050565b60006020828403121561226957612268611fab565b5b600061227784828501611ffe565b91505092915050565b60006020828403121561229657612295611fab565b5b60006122a484828501612034565b91505092915050565b600080604083850312156122c4576122c3611fab565b5b60006122d285828601611ffe565b92505060206122e385828601611ffe565b9150509250929050565b6122f681612089565b811461230157600080fd5b50565b600081359050612313816122ed565b92915050565b60006020828403121561232f5761232e611fab565b5b600061233d84828501612304565b91505092915050565b60008060006060848603121561235f5761235e611fab565b5b600061236d86828701612034565b935050602061237e86828701612034565b925050604061238f86828701612034565b9150509250925092565b7f4e487b7100000000000000000000000000000000000000000000000000000000600052602260045260246000fd5b600060028204905060018216806123e057607f821691505b6020821081036123f3576123f2612399565b5b50919050565b7f4e487b7100000000000000000000000000000000000000000000000000000000600052601160045260246000fd5b600061243382612013565b915061243e83612013565b9250828201905080821115612456576124556123f9565b5b92915050565b7f45524332303a2064656372656173656420616c6c6f77616e63652062656c6f7760008201527f207a65726f000000000000000000000000000000000000000000000000000000602082015250565b60006124b8602583611efa565b91506124c38261245c565b604082019050919050565b600060208201905081810360008301526124e7816124ab565b9050919050565b7f5461782063616e6e6f74206265206d6f7265207468616e203235250000000000600082015250565b6000612524601b83611efa565b915061252f826124ee565b602082019050919050565b6000602082019050818103600083015261255381612517565b9050919050565b7f4f776e61626c653a206e6577206f776e657220697320746865207a65726f206160008201527f6464726573730000000000000000000000000000000000000000000000000000602082015250565b60006125b6602683611efa565b91506125c18261255a565b604082019050919050565b600060208201905081810360008301526125e5816125a9565b9050919050565b7f45524332303a20617070726f76652066726f6d20746865207a65726f2061646460008201527f7265737300000000000000000000000000000000000000000000000000000000602082015250565b6000612648602483611efa565b9150612653826125ec565b604082019050919050565b600060208201905081810360008301526126778161263b565b9050919050565b7f45524332303a20617070726f766520746f20746865207a65726f20616464726560008201527f7373000000000000000000000000000000000000000000000000000000000000602082015250565b60006126da602283611efa565b91506126e58261267e565b604082019050919050565b60006020820190508181036000830152612709816126cd565b9050919050565b7f45524332303a20696e73756666696369656e7420616c6c6f77616e6365000000600082015250565b6000612746601d83611efa565b915061275182612710565b602082019050919050565b6000602082019050818103600083015261277581612739565b9050919050565b7f54726164696e67206973206e6f7420656e61626c6564207965742e0000000000600082015250565b60006127b2601b83611efa565b91506127bd8261277c565b602082019050919050565b600060208201905081810360008301526127e1816127a5565b9050919050565b7f4164647265737320697320626c61636b6c697374656400000000000000000000600082015250565b600061281e601683611efa565b9150612829826127e8565b602082019050919050565b6000602082019050818103600083015261284d81612811565b9050919050565b7f45786365656473206d61782077616c6c6574206c696d69740000000000000000600082015250565b600061288a601883611efa565b915061289582612854565b602082019050919050565b600060208201905081810360008301526128b98161287d565b9050919050565b60006060820190506128d560008301866121f2565b6128e260208301856121f2565b6128ef6040830184612139565b949350505050565b600081519050612906816122ed565b92915050565b60006020828403121561292257612921611fab565b5b6000612930848285016128f7565b91505092915050565b7f4f776e61626c653a2063616c6c6572206973206e6f7420746865206f776e6572600082015250565b600061296f602083611efa565b915061297a82612939565b602082019050919050565b6000602082019050818103600083015261299e81612962565b9050919050565b60006129b082612013565b91506129bb83612013565b92508282026129c981612013565b915082820484148315176129e0576129df6123f9565b5b5092915050565b7f4e487b7100000000000000000000000000000000000000000000000000000000600052601260045260246000fd5b6000612a2182612013565b9150612a2c83612013565b925082612a3c57612a3b6129e7565b5b828204905092915050565b7f4e487b7100000000000000000000000000000000000000000000000000000000600052603260045260246000fd5b600081519050612a8581611fe7565b92915050565b600060208284031215612aa157612aa0611fab565b5b6000612aaf84828501612a76565b91505092915050565b6000819050919050565b6000612add612ad8612ad384612ab8565b6120bf565b612013565b9050919050565b612aed81612ac2565b82525050565b600081549050919050565b600082825260208201905092915050565b60008190508160005260206000209050919050565b612b2d81611fd5565b82525050565b6000612b3f8383612b24565b60208301905092915050565b60008160001c9050919050565b600073ffffffffffffffffffffffffffffffffffffffff82169050919050565b6000612b8b612b8683612b4b565b612b58565b9050919050565b6000612b9e8254612b78565b9050919050565b6000600182019050919050565b6000612bbd82612af3565b612bc78185612afe565b9350612bd283612b0f565b8060005b83811015612c0a57612be782612b92565b612bf18882612b33565b9750612bfc83612ba5565b925050600181019050612bd6565b5085935050505092915050565b600060a082019050612c2c6000830188612139565b612c396020830187612ae4565b8181036040830152612c4b8186612bb2565b9050612c5a60608301856121f2565b612c676080830184612139565b9695505050505050565b600080fd5b7f4e487b7100000000000000000000000000000000000000000000000000000000600052604160045260246000fd5b612cae82611f35565b810181811067ffffffffffffffff82111715612ccd57612ccc612c76565b5b80604052505050565b6000612ce0611fa1565b9050612cec8282612ca5565b919050565b600067ffffffffffffffff821115612d0c57612d0b612c76565b5b602082029050602081019050919050565b600080fd5b600081519050612d318161201d565b92915050565b6000612d4a612d4584612cf1565b612cd6565b90508083825260208201905060208402830185811115612d6d57612d6c612d1d565b5b835b81811015612d965780612d828882612d22565b845260208401935050602081019050612d6f565b5050509392505050565b600082601f830112612db557612db4612c71565b5b8151612dc5848260208601612d37565b91505092915050565b600060208284031215612de457612de3611fab565b5b600082015167ffffffffffffffff811115612e0257612e01611fb0565b5b612e0e84828501612da0565b91505092915050565b6000612e2282612013565b9150612e2d83612013565b9250828203905081811115612e4557612e446123f9565b5b92915050565b7f45524332303a207472616e736665722066726f6d20746865207a65726f20616460008201527f6472657373000000000000000000000000000000000000000000000000000000602082015250565b6000612ea7602583611efa565b9150612eb282612e4b565b604082019050919050565b60006020820190508181036000830152612ed681612e9a565b9050919050565b7f45524332303a207472616e7366657220746f20746865207a65726f206164647260008201527f6573730000000000000000000000000000000000000000000000000000000000602082015250565b6000612f39602383611efa565b9150612f4482612edd565b604082019050919050565b60006020820190508181036000830152612f6881612f2c565b9050919050565b7f45524332303a207472616e7366657220616d6f756e742065786365656473206260008201527f616c616e63650000000000000000000000000000000000000000000000000000602082015250565b6000612fcb602683611efa565b9150612fd682612f6f565b604082019050919050565b60006020820190508181036000830152612ffa81612fbe565b905091905056fea26469706673582212204746e6113bb1c02970ff1644ba814ec61c37b4e93c6d4c4decfe198bc005940364736f6c63430008110033",
  "linkReferences": {},
  "deployedLinkReferences": {}
}