{
  "_format": "hh-sol-artifact-1",
  "contractName": "Presale",
  "sourceName": "contracts/Presale.sol",
  "abi": [
    {
      "inputs": [
        {
          "internalType": "address",
          "name": "_token",
          "type": "address"
        },
        {
          "internalType": "address",
          "name": "_usdt",
          "type": "address"
        },
        {
          "internalType": "address",
          "name": "_collectorWallet",
          "type": "address"
        },
        {
          "internalType": "address",
          "name": "_priceFeed",
          "type": "address"
        }
      ],
      "stateMutability": "nonpayable",
      "type": "constructor"
    },
    {
      "anonymous": false,
      "inputs": [
        {
          "indexed": true,
          "internalType": "address",
          "name": "previousOwner",
          "type": "address"
        },
        {
          "indexed": true,
          "internalType": "address",
          "name": "newOwner",
          "type": "address"
        }
      ],
      "name": "OwnershipTransferred",
      "type": "event"
    },
    {
      "anonymous": false,
      "inputs": [],
      "name": "PresaleEnded",
      "type": "event"
    },
    {
      "anonymous": false,
      "inputs": [
        {
          "indexed": false,
          "internalType": "uint256",
          "name": "startTime",
          "type": "uint256"
        },
        {
          "indexed": false,
          "internalType": "uint256",
          "name": "endTime",
          "type": "uint256"
        }
      ],
      "name": "PresaleStarted",
      "type": "event"
    },
    {
      "anonymous": false,
      "inputs": [
        {
          "indexed": true,
          "internalType": "address",
          "name": "buyer",
          "type": "address"
        },
        {
          "indexed": false,
          "internalType": "uint256",
          "name": "amount",
          "type": "uint256"
        },
        {
          "indexed": false,
          "internalType": "uint256",
          "name": "price",
          "type": "uint256"
        }
      ],
      "name": "TokensBought",
      "type": "event"
    },
    {
      "inputs": [],
      "name": "buyWithETH",
      "outputs": [],
      "stateMutability": "payable",
      "type": "function"
    },
    {
      "inputs": [
        {
          "internalType": "uint256",
          "name": "_usdtAmount",
          "type": "uint256"
        }
      ],
      "name": "buyWithUSDT",
      "outputs": [],
      "stateMutability": "nonpayable",
      "type": "function"
    },
    {
      "inputs": [
        {
          "internalType": "address",
          "name": "",
          "type": "address"
        }
      ],
      "name": "buyerBalances",
      "outputs": [
        {
          "internalType": "uint256",
          "name": "",
          "type": "uint256"
        }
      ],
      "stateMutability": "view",
      "type": "function"
    },
    {
      "inputs": [
        {
          "internalType": "address",
          "name": "_user",
          "type": "address"
        }
      ],
      "name": "calculateVestedTokens",
      "outputs": [
        {
          "internalType": "uint256",
          "name": "",
          "type": "uint256"
        }
      ],
      "stateMutability": "view",
      "type": "function"
    },
    {
      "inputs": [],
      "name": "claimTokens",
      "outputs": [],
      "stateMutability": "nonpayable",
      "type": "function"
    },
    {
      "inputs": [],
      "name": "collectorWallet",
      "outputs": [
        {
          "internalType": "address",
          "name": "",
          "type": "address"
        }
      ],
      "stateMutability": "view",
      "type": "function"
    },
    {
      "inputs": [],
      "name": "endPresale",
      "outputs": [],
      "stateMutability": "nonpayable",
      "type": "function"
    },
    {
      "inputs": [],
      "name": "owner",
      "outputs": [
        {
          "internalType": "address",
          "name": "",
          "type": "address"
        }
      ],
      "stateMutability": "view",
      "type": "function"
    },
    {
      "inputs": [],
      "name": "presaleEndTime",
      "outputs": [
        {
          "internalType": "uint256",
          "name": "",
          "type": "uint256"
        }
      ],
      "stateMutability": "view",
      "type": "function"
    },
    {
      "inputs": [],
      "name": "presaleStartTime",
      "outputs": [
        {
          "internalType": "uint256",
          "name": "",
          "type": "uint256"
        }
      ],
      "stateMutability": "view",
      "type": "function"
    },
    {
      "inputs": [],
      "name": "renounceOwnership",
      "outputs": [],
      "stateMutability": "nonpayable",
      "type": "function"
    },
    {
      "inputs": [
        {
          "internalType": "uint256",
          "name": "_durationInDays",
          "type": "uint256"
        },
        {
          "internalType": "uint256",
          "name": "_tokenPriceInETH",
          "type": "uint256"
        },
        {
          "internalType": "uint256",
          "name": "_tokenPriceInUSDT",
          "type": "uint256"
        }
      ],
      "name": "startPresale",
      "outputs": [],
      "stateMutability": "nonpayable",
      "type": "function"
    },
    {
      "inputs": [],
      "name": "token",
      "outputs": [
        {
          "internalType": "contract Token",
          "name": "",
          "type": "address"
        }
      ],
      "stateMutability": "view",
      "type": "function"
    },
    {
      "inputs": [],
      "name": "tokenPriceInETH",
      "outputs": [
        {
          "internalType": "uint256",
          "name": "",
          "type": "uint256"
        }
      ],
      "stateMutability": "view",
      "type": "function"
    },
    {
      "inputs": [],
      "name": "tokenPriceInUSDT",
      "outputs": [
        {
          "internalType": "uint256",
          "name": "",
          "type": "uint256"
        }
      ],
      "stateMutability": "view",
      "type": "function"
    },
    {
      "inputs": [],
      "name": "tokensAvailableForSale",
      "outputs": [
        {
          "internalType": "uint256",
          "name": "",
          "type": "uint256"
        }
      ],
      "stateMutability": "view",
      "type": "function"
    },
    {
      "inputs": [],
      "name": "tokensSold",
      "outputs": [
        {
          "internalType": "uint256",
          "name": "",
          "type": "uint256"
        }
      ],
      "stateMutability": "view",
      "type": "function"
    },
    {
      "inputs": [
        {
          "internalType": "address",
          "name": "newOwner",
          "type": "address"
        }
      ],
      "name": "transferOwnership",
      "outputs": [],
      "stateMutability": "nonpayable",
      "type": "function"
    },
    {
      "inputs": [],
      "name": "usdt",
      "outputs": [
        {
          "internalType": "contract IERC20",
          "name": "",
          "type": "address"
        }
      ],
      "stateMutability": "view",
      "type": "function"
    },
    {
      "inputs": [
        {
          "internalType": "address",
          "name": "",
          "type": "address"
        }
      ],
      "name": "vestedTokens",
      "outputs": [
        {
          "internalType": "uint256",
          "name": "",
          "type": "uint256"
        }
      ],
      "stateMutability": "view",
      "type": "function"
    },
    {
      "inputs": [],
      "name": "withdrawETH",
      "outputs": [],
      "stateMutability": "nonpayable",
      "type": "function"
    },
    {
      "inputs": [],
      "name": "withdrawUSDT",
      "outputs": [],
      "stateMutability": "nonpayable",
      "type": "function"
    }
  ],
  "bytecode": "0x60806040523480156200001157600080fd5b5060405162001ec838038062001ec883398181016040528101906200003791906200029b565b620000576200004b6200016560201b60201c565b6200016d60201b60201c565b83600160006101000a81548173ffffffffffffffffffffffffffffffffffffffff021916908373ffffffffffffffffffffffffffffffffffffffff16021790555082600260006101000a81548173ffffffffffffffffffffffffffffffffffffffff021916908373ffffffffffffffffffffffffffffffffffffffff16021790555081600360006101000a81548173ffffffffffffffffffffffffffffffffffffffff021916908373ffffffffffffffffffffffffffffffffffffffff16021790555080600c60006101000a81548173ffffffffffffffffffffffffffffffffffffffff021916908373ffffffffffffffffffffffffffffffffffffffff160217905550505050506200030d565b600033905090565b60008060009054906101000a900473ffffffffffffffffffffffffffffffffffffffff169050816000806101000a81548173ffffffffffffffffffffffffffffffffffffffff021916908373ffffffffffffffffffffffffffffffffffffffff1602179055508173ffffffffffffffffffffffffffffffffffffffff168173ffffffffffffffffffffffffffffffffffffffff167f8be0079c531659141344cd1fd0a4f28419497f9722a3daafe3b4186f6b6457e060405160405180910390a35050565b600080fd5b600073ffffffffffffffffffffffffffffffffffffffff82169050919050565b6000620002638262000236565b9050919050565b620002758162000256565b81146200028157600080fd5b50565b60008151905062000295816200026a565b92915050565b60008060008060808587031215620002b857620002b762000231565b5b6000620002c88782880162000284565b9450506020620002db8782880162000284565b9350506040620002ee8782880162000284565b9250506060620003018782880162000284565b91505092959194509250565b611bab806200031d6000396000f3fe6080604052600436106101355760003560e01c80639092f869116100ab578063bdeb9fb41161006f578063bdeb9fb41461039b578063c2cbeaec146103c6578063ccbec41614610403578063e086e5ec1461042c578063f2fde38b14610443578063fc0c546a1461046c57610135565b80639092f869146102c8578063a43be57b14610305578063a7c601601461031c578063a82524b214610345578063a848a62a1461037057610135565b80633dee0397116100fd5780633dee0397146101dc57806348c54b9d14610219578063518ab2a814610230578063652ebb4c1461025b578063715018a6146102865780638da5cb5b1461029d57610135565b8063150d283d1461013a578063249b7c19146101445780632f48ab7d1461016f578063338980821461019a578063362e496b146101c5575b600080fd5b610142610497565b005b34801561015057600080fd5b50610159610661565b604051610166919061133e565b60405180910390f35b34801561017b57600080fd5b50610184610667565b60405161019191906113d8565b60405180910390f35b3480156101a657600080fd5b506101af61068d565b6040516101bc919061133e565b60405180910390f35b3480156101d157600080fd5b506101da610693565b005b3480156101e857600080fd5b5061020360048036038101906101fe9190611436565b610801565b604051610210919061133e565b60405180910390f35b34801561022557600080fd5b5061022e610819565b005b34801561023c57600080fd5b50610245610a7b565b604051610252919061133e565b60405180910390f35b34801561026757600080fd5b50610270610a81565b60405161027d919061133e565b60405180910390f35b34801561029257600080fd5b5061029b610a87565b005b3480156102a957600080fd5b506102b2610a9b565b6040516102bf9190611472565b60405180910390f35b3480156102d457600080fd5b506102ef60048036038101906102ea9190611436565b610ac4565b6040516102fc919061133e565b60405180910390f35b34801561031157600080fd5b5061031a610adc565b005b34801561032857600080fd5b50610343600480360381019061033e91906114b9565b610b67565b005b34801561035157600080fd5b5061035a610df7565b604051610367919061133e565b60405180910390f35b34801561037c57600080fd5b50610385610dfd565b6040516103929190611472565b60405180910390f35b3480156103a757600080fd5b506103b0610e23565b6040516103bd919061133e565b60405180910390f35b3480156103d257600080fd5b506103ed60048036038101906103e89190611436565b610e29565b6040516103fa919061133e565b60405180910390f35b34801561040f57600080fd5b5061042a600480360381019061042591906114e6565b610ede565b005b34801561043857600080fd5b50610441611067565b005b34801561044f57600080fd5b5061046a60048036038101906104659190611436565b6110da565b005b34801561047857600080fd5b5061048161115d565b60405161048e919061155a565b60405180910390f35b60065442101580156104ab57506007544211155b6104ea576040517f08c379a00000000000000000000000000000000000000000000000000000000081526004016104e1906115d2565b60405180910390fd5b60006105016004543461118390919063ffffffff16565b905060095461051b8260085461119990919063ffffffff16565b111561055c576040517f08c379a00000000000000000000000000000000000000000000000000000000081526004016105539061163e565b60405180910390fd5b6105ae81600a60003373ffffffffffffffffffffffffffffffffffffffff1673ffffffffffffffffffffffffffffffffffffffff1681526020019081526020016000205461119990919063ffffffff16565b600a60003373ffffffffffffffffffffffffffffffffffffffff1673ffffffffffffffffffffffffffffffffffffffff168152602001908152602001600020819055506106068160085461119990919063ffffffff16565b6008819055503373ffffffffffffffffffffffffffffffffffffffff167f8442948036198f1146d3a63c3db355d7e0295c2cc5676c755990445da4fdc1c98260045460405161065692919061165e565b60405180910390a250565b60075481565b600260009054906101000a900473ffffffffffffffffffffffffffffffffffffffff1681565b60055481565b61069b6111af565b6000600260009054906101000a900473ffffffffffffffffffffffffffffffffffffffff1673ffffffffffffffffffffffffffffffffffffffff166370a08231306040518263ffffffff1660e01b81526004016106f89190611472565b602060405180830381865afa158015610715573d6000803e3d6000fd5b505050506040513d601f19601f82011682018060405250810190610739919061169c565b9050600260009054906101000a900473ffffffffffffffffffffffffffffffffffffffff1673ffffffffffffffffffffffffffffffffffffffff1663a9059cbb600360009054906101000a900473ffffffffffffffffffffffffffffffffffffffff16836040518363ffffffff1660e01b81526004016107ba9291906116c9565b6020604051808303816000875af11580156107d9573d6000803e3d6000fd5b505050506040513d601f19601f820116820180604052508101906107fd919061172a565b5050565b600b6020528060005260406000206000915090505481565b600754421161085d576040517f08c379a0000000000000000000000000000000000000000000000000000000008152600401610854906117a3565b60405180910390fd5b600061086833610e29565b9050600081116108ad576040517f08c379a00000000000000000000000000000000000000000000000000000000081526004016108a49061180f565b60405180910390fd5b6108ff81600b60003373ffffffffffffffffffffffffffffffffffffffff1673ffffffffffffffffffffffffffffffffffffffff1681526020019081526020016000205461119990919063ffffffff16565b600b60003373ffffffffffffffffffffffffffffffffffffffff1673ffffffffffffffffffffffffffffffffffffffff1681526020019081526020016000208190555061099481600a60003373ffffffffffffffffffffffffffffffffffffffff1673ffffffffffffffffffffffffffffffffffffffff1681526020019081526020016000205461122d90919063ffffffff16565b600a60003373ffffffffffffffffffffffffffffffffffffffff1673ffffffffffffffffffffffffffffffffffffffff16815260200190815260200160002081905550600160009054906101000a900473ffffffffffffffffffffffffffffffffffffffff1673ffffffffffffffffffffffffffffffffffffffff1663a9059cbb33836040518363ffffffff1660e01b8152600401610a349291906116c9565b6020604051808303816000875af1158015610a53573d6000803e3d6000fd5b505050506040513d601f19601f82011682018060405250810190610a77919061172a565b5050565b60085481565b60045481565b610a8f6111af565b610a996000611243565b565b60008060009054906101000a900473ffffffffffffffffffffffffffffffffffffffff16905090565b600a6020528060005260406000206000915090505481565b610ae46111af565b600754421015610b29576040517f08c379a0000000000000000000000000000000000000000000000000000000008152600401610b209061187b565b60405180910390fd5b600060068190555060006007819055507f1eb1561f8507eb9bc6988331f66f369e75710f2b4b678ad5b4a52454b6636f5f60405160405180910390a1565b6006544210158015610b7b57506007544211155b610bba576040517f08c379a0000000000000000000000000000000000000000000000000000000008152600401610bb1906115d2565b60405180910390fd5b6000610bd16005548361118390919063ffffffff16565b9050600954610beb8260085461119990919063ffffffff16565b1115610c2c576040517f08c379a0000000000000000000000000000000000000000000000000000000008152600401610c239061163e565b60405180910390fd5b600260009054906101000a900473ffffffffffffffffffffffffffffffffffffffff1673ffffffffffffffffffffffffffffffffffffffff166323b872dd33600360009054906101000a900473ffffffffffffffffffffffffffffffffffffffff16856040518463ffffffff1660e01b8152600401610cad9392919061189b565b6020604051808303816000875af1158015610ccc573d6000803e3d6000fd5b505050506040513d601f19601f82011682018060405250810190610cf0919061172a565b50610d4381600a60003373ffffffffffffffffffffffffffffffffffffffff1673ffffffffffffffffffffffffffffffffffffffff1681526020019081526020016000205461119990919063ffffffff16565b600a60003373ffffffffffffffffffffffffffffffffffffffff1673ffffffffffffffffffffffffffffffffffffffff16815260200190815260200160002081905550610d9b8160085461119990919063ffffffff16565b6008819055503373ffffffffffffffffffffffffffffffffffffffff167f8442948036198f1146d3a63c3db355d7e0295c2cc5676c755990445da4fdc1c982600554604051610deb92919061165e565b60405180910390a25050565b60065481565b600360009054906101000a900473ffffffffffffffffffffffffffffffffffffffff1681565b60095481565b600080610e416007544261122d90919063ffffffff16565b90506000610e6e6019610e6062278d008561118390919063ffffffff16565b61130790919063ffffffff16565b9050610ed56064610ec783600a60008973ffffffffffffffffffffffffffffffffffffffff1673ffffffffffffffffffffffffffffffffffffffff1681526020019081526020016000205461130790919063ffffffff16565b61118390919063ffffffff16565b92505050919050565b610ee66111af565b600060065414610f2b576040517f08c379a0000000000000000000000000000000000000000000000000000000008152600401610f229061191e565b60405180910390fd5b426006819055506201518083610f41919061196d565b42610f4c91906119af565b600781905550816004819055508060058190555061101760646110096028600160009054906101000a900473ffffffffffffffffffffffffffffffffffffffff1673ffffffffffffffffffffffffffffffffffffffff166318160ddd6040518163ffffffff1660e01b8152600401602060405180830381865afa158015610fd7573d6000803e3d6000fd5b505050506040513d601f19601f82011682018060405250810190610ffb919061169c565b61130790919063ffffffff16565b61118390919063ffffffff16565b60098190555060006008819055507f884f0ecd854b5bcb742f0156e594094458bddc3f2cc8c9e4048a7cedfa6f01cc60065460075460405161105a92919061165e565b60405180910390a1505050565b61106f6111af565b600360009054906101000a900473ffffffffffffffffffffffffffffffffffffffff1673ffffffffffffffffffffffffffffffffffffffff166108fc479081150290604051600060405180830381858888f193505050501580156110d7573d6000803e3d6000fd5b50565b6110e26111af565b600073ffffffffffffffffffffffffffffffffffffffff168173ffffffffffffffffffffffffffffffffffffffff1603611151576040517f08c379a000000000000000000000000000000000000000000000000000000000815260040161114890611a55565b60405180910390fd5b61115a81611243565b50565b600160009054906101000a900473ffffffffffffffffffffffffffffffffffffffff1681565b600081836111919190611aa4565b905092915050565b600081836111a791906119af565b905092915050565b6111b761131d565b73ffffffffffffffffffffffffffffffffffffffff166111d5610a9b565b73ffffffffffffffffffffffffffffffffffffffff161461122b576040517f08c379a000000000000000000000000000000000000000000000000000000000815260040161122290611b21565b60405180910390fd5b565b6000818361123b9190611b41565b905092915050565b60008060009054906101000a900473ffffffffffffffffffffffffffffffffffffffff169050816000806101000a81548173ffffffffffffffffffffffffffffffffffffffff021916908373ffffffffffffffffffffffffffffffffffffffff1602179055508173ffffffffffffffffffffffffffffffffffffffff168173ffffffffffffffffffffffffffffffffffffffff167f8be0079c531659141344cd1fd0a4f28419497f9722a3daafe3b4186f6b6457e060405160405180910390a35050565b60008183611315919061196d565b905092915050565b600033905090565b6000819050919050565b61133881611325565b82525050565b6000602082019050611353600083018461132f565b92915050565b600073ffffffffffffffffffffffffffffffffffffffff82169050919050565b6000819050919050565b600061139e61139961139484611359565b611379565b611359565b9050919050565b60006113b082611383565b9050919050565b60006113c2826113a5565b9050919050565b6113d2816113b7565b82525050565b60006020820190506113ed60008301846113c9565b92915050565b600080fd5b600061140382611359565b9050919050565b611413816113f8565b811461141e57600080fd5b50565b6000813590506114308161140a565b92915050565b60006020828403121561144c5761144b6113f3565b5b600061145a84828501611421565b91505092915050565b61146c816113f8565b82525050565b60006020820190506114876000830184611463565b92915050565b61149681611325565b81146114a157600080fd5b50565b6000813590506114b38161148d565b92915050565b6000602082840312156114cf576114ce6113f3565b5b60006114dd848285016114a4565b91505092915050565b6000806000606084860312156114ff576114fe6113f3565b5b600061150d868287016114a4565b935050602061151e868287016114a4565b925050604061152f868287016114a4565b9150509250925092565b6000611544826113a5565b9050919050565b61155481611539565b82525050565b600060208201905061156f600083018461154b565b92915050565b600082825260208201905092915050565b7f50726573616c65206973206e6f74206163746976650000000000000000000000600082015250565b60006115bc601583611575565b91506115c782611586565b602082019050919050565b600060208201905081810360008301526115eb816115af565b9050919050565b7f4e6f7420656e6f75676820746f6b656e7320617661696c61626c650000000000600082015250565b6000611628601b83611575565b9150611633826115f2565b602082019050919050565b600060208201905081810360008301526116578161161b565b9050919050565b6000604082019050611673600083018561132f565b611680602083018461132f565b9392505050565b6000815190506116968161148d565b92915050565b6000602082840312156116b2576116b16113f3565b5b60006116c084828501611687565b91505092915050565b60006040820190506116de6000830185611463565b6116eb602083018461132f565b9392505050565b60008115159050919050565b611707816116f2565b811461171257600080fd5b50565b600081519050611724816116fe565b92915050565b6000602082840312156117405761173f6113f3565b5b600061174e84828501611715565b91505092915050565b7f50726573616c6520686173206e6f7420656e6465640000000000000000000000600082015250565b600061178d601583611575565b915061179882611757565b602082019050919050565b600060208201905081810360008301526117bc81611780565b9050919050565b7f4e6f20746f6b656e7320617661696c61626c6520666f7220636c61696d000000600082015250565b60006117f9601d83611575565b9150611804826117c3565b602082019050919050565b60006020820190508181036000830152611828816117ec565b9050919050565b7f50726573616c65206973207374696c6c206f6e676f696e670000000000000000600082015250565b6000611865601883611575565b91506118708261182f565b602082019050919050565b6000602082019050818103600083015261189481611858565b9050919050565b60006060820190506118b06000830186611463565b6118bd6020830185611463565b6118ca604083018461132f565b949350505050565b7f50726573616c6520616c72656164792073746172746564000000000000000000600082015250565b6000611908601783611575565b9150611913826118d2565b602082019050919050565b60006020820190508181036000830152611937816118fb565b9050919050565b7f4e487b7100000000000000000000000000000000000000000000000000000000600052601160045260246000fd5b600061197882611325565b915061198383611325565b925082820261199181611325565b915082820484148315176119a8576119a761193e565b5b5092915050565b60006119ba82611325565b91506119c583611325565b92508282019050808211156119dd576119dc61193e565b5b92915050565b7f4f776e61626c653a206e6577206f776e657220697320746865207a65726f206160008201527f6464726573730000000000000000000000000000000000000000000000000000602082015250565b6000611a3f602683611575565b9150611a4a826119e3565b604082019050919050565b60006020820190508181036000830152611a6e81611a32565b9050919050565b7f4e487b7100000000000000000000000000000000000000000000000000000000600052601260045260246000fd5b6000611aaf82611325565b9150611aba83611325565b925082611aca57611ac9611a75565b5b828204905092915050565b7f4f776e61626c653a2063616c6c6572206973206e6f7420746865206f776e6572600082015250565b6000611b0b602083611575565b9150611b1682611ad5565b602082019050919050565b60006020820190508181036000830152611b3a81611afe565b9050919050565b6000611b4c82611325565b9150611b5783611325565b9250828203905081811115611b6f57611b6e61193e565b5b9291505056fea2646970667358221220a786da2731931d0d45e1ede7f4bf0af9c46d11fed66a8f01fbb27b99223d56ca64736f6c63430008110033",
  "linkReferences": {},
  "deployedLinkReferences": {}
}